{
	"data": {
		"bytecode": {
			"linkReferences": {},
			"object": "610160604052348015610010575f5ffd5b506040518060400160405280600781526020017f4f5455534f4e4500000000000000000000000000000000000000000000000000815250806040518060400160405280600181526020017f31000000000000000000000000000000000000000000000000000000000000008152506040518060400160405280600781526020017f4f7475734f6e65000000000000000000000000000000000000000000000000008152506040518060400160405280600781526020017f4f5455534f4e450000000000000000000000000000000000000000000000000081525081600590816100f99190610812565b5080600690816101099190610812565b50505061012060078361025860201b90919060201c565b610120818152505061013c60088261025860201b90919060201c565b6101408181525050818051906020012060e08181525050808051906020012061010081815250504660a081815250506101796102a560201b60201c565b608081815250503073ffffffffffffffffffffffffffffffffffffffff1660c08173ffffffffffffffffffffffffffffffffffffffff16815250505050506101d65f5f1b6101cb6102ff60201b60201c565b61030660201b60201c565b506102147f9f2df0fed2c77648de5860a4cc508cd0818c85b8b8a1ab4ceeef8d981c8956a66102096102ff60201b60201c565b61030660201b60201c565b506102527f65d7a28e3265b37a6474929f336521b332c1681b933f6cb9f3376673440d862a6102476102ff60201b60201c565b61030660201b60201c565b50610ab1565b5f602083511015610279576102728361034f60201b60201c565b905061029f565b82610289836103b460201b60201c565b5f0190816102979190610812565b5060ff5f1b90505b92915050565b5f7f8b73c3c69bb8fe3d512ecc4cf759cc79239f7b179b0ffacaa9a75d522b39400f60e0516101005146306040516020016102e4959493929190610947565b60405160208183030381529060405280519060200120905090565b5f33905090565b5f5f61031884846103bd60201b60201c565b90508015610345576103438360015f8781526020019081526020015f206104b260201b90919060201c565b505b8091505092915050565b5f5f829050601f8151111561039b57826040517f305a27a900000000000000000000000000000000000000000000000000000000815260040161039291906109fe565b60405180910390fd5b8051816103a790610a4b565b5f1c175f1b915050919050565b5f819050919050565b5f6103ce83836104e560201b60201c565b6104a85760015f5f8581526020019081526020015f205f015f8473ffffffffffffffffffffffffffffffffffffffff1673ffffffffffffffffffffffffffffffffffffffff1681526020019081526020015f205f6101000a81548160ff0219169083151502179055506104456102ff60201b60201c565b73ffffffffffffffffffffffffffffffffffffffff168273ffffffffffffffffffffffffffffffffffffffff16847f2f8788117e7eff1d82e926ec794901d17c78024a50270940304540a733656f0d60405160405180910390a4600190506104ac565b5f90505b92915050565b5f6104dd835f018373ffffffffffffffffffffffffffffffffffffffff165f1b61054860201b60201c565b905092915050565b5f5f5f8481526020019081526020015f205f015f8373ffffffffffffffffffffffffffffffffffffffff1673ffffffffffffffffffffffffffffffffffffffff1681526020019081526020015f205f9054906101000a900460ff16905092915050565b5f61055983836105b560201b60201c565b6105ab57825f0182908060018154018082558091505060019003905f5260205f20015f9091909190915055825f0180549050836001015f8481526020019081526020015f2081905550600190506105af565b5f90505b92915050565b5f5f836001015f8481526020019081526020015f20541415905092915050565b5f81519050919050565b7f4e487b71000000000000000000000000000000000000000000000000000000005f52604160045260245ffd5b7f4e487b71000000000000000000000000000000000000000000000000000000005f52602260045260245ffd5b5f600282049050600182168061065057607f821691505b6020821081036106635761066261060c565b5b50919050565b5f819050815f5260205f209050919050565b5f6020601f8301049050919050565b5f82821b905092915050565b5f600883026106c57fffffffffffffffffffffffffffffffffffffffffffffffffffffffffffffffff8261068a565b6106cf868361068a565b95508019841693508086168417925050509392505050565b5f819050919050565b5f819050919050565b5f61071361070e610709846106e7565b6106f0565b6106e7565b9050919050565b5f819050919050565b61072c836106f9565b6107406107388261071a565b848454610696565b825550505050565b5f5f905090565b610757610748565b610762818484610723565b505050565b5b818110156107855761077a5f8261074f565b600181019050610768565b5050565b601f8211156107ca5761079b81610669565b6107a48461067b565b810160208510156107b3578190505b6107c76107bf8561067b565b830182610767565b50505b505050565b5f82821c905092915050565b5f6107ea5f19846008026107cf565b1980831691505092915050565b5f61080283836107db565b9150826002028217905092915050565b61081b826105d5565b67ffffffffffffffff811115610834576108336105df565b5b61083e8254610639565b610849828285610789565b5f60209050601f83116001811461087a575f8415610868578287015190505b61087285826107f7565b8655506108d9565b601f19841661088886610669565b5f5b828110156108af5784890151825560018201915060208501945060208101905061088a565b868310156108cc57848901516108c8601f8916826107db565b8355505b6001600288020188555050505b505050505050565b5f819050919050565b6108f3816108e1565b82525050565b610902816106e7565b82525050565b5f73ffffffffffffffffffffffffffffffffffffffff82169050919050565b5f61093182610908565b9050919050565b61094181610927565b82525050565b5f60a08201905061095a5f8301886108ea565b61096760208301876108ea565b61097460408301866108ea565b61098160608301856108f9565b61098e6080830184610938565b9695505050505050565b5f82825260208201905092915050565b8281835e5f83830152505050565b5f601f19601f8301169050919050565b5f6109d0826105d5565b6109da8185610998565b93506109ea8185602086016109a8565b6109f3816109b6565b840191505092915050565b5f6020820190508181035f830152610a1681846109c6565b905092915050565b5f81519050919050565b5f819050602082019050919050565b5f610a4282516108e1565b80915050919050565b5f610a5582610a1e565b82610a5f84610a28565b9050610a6a81610a37565b92506020821015610aaa57610aa57fffffffffffffffffffffffffffffffffffffffffffffffffffffffffffffffff8360200360080261068a565b831692505b5050919050565b60805160a05160c05160e051610100516101205161014051613400610b025f395f61169801525f61165d01525f611bc201525f611ba101525f6112e701525f61133d01525f61136601526134005ff3fe608060405234801561000f575f5ffd5b5060043610610204575f3560e01c80638456cb5911610118578063bac498e1116100ab578063d547741f1161007a578063d547741f14610606578063dd60be2214610622578063dd62ed3e1461063e578063e58306f91461066e578063e63ab1e91461068a57610204565b8063bac498e11461057e578063ca15c8731461059c578063d505accf146105cc578063d5391393146105e857610204565b806395d89b41116100e757806395d89b41146104e2578063a217fddf14610500578063a3246ad31461051e578063a9059cbb1461054e57610204565b80638456cb591461045457806384b0196e1461045e5780639010d07c1461048257806391d14854146104b257610204565b80633644e5151161019b57806342966c681161016a57806342966c681461039e5780635c975abb146103ba57806370a08231146103d857806379cc6790146104085780637ecebe001461042457610204565b80633644e5151461033e57806336568abe1461035c5780633f4ba83a1461037857806340c10f191461038257610204565b806323b872dd116101d757806323b872dd146102a4578063248a9ca3146102d45780632f2ff15d14610304578063313ce5671461032057610204565b806301ffc9a71461020857806306fdde0314610238578063095ea7b31461025657806318160ddd14610286575b5f5ffd5b610222600480360381019061021d919061263e565b6106a8565b60405161022f9190612683565b60405180910390f35b610240610721565b60405161024d919061270c565b60405180910390f35b610270600480360381019061026b91906127b9565b6107b1565b60405161027d9190612683565b60405180910390f35b61028e6107d3565b60405161029b9190612806565b60405180910390f35b6102be60048036038101906102b9919061281f565b6107dc565b6040516102cb9190612683565b60405180910390f35b6102ee60048036038101906102e991906128a2565b61080a565b6040516102fb91906128dc565b60405180910390f35b61031e600480360381019061031991906128f5565b610826565b005b610328610848565b604051610335919061294e565b60405180910390f35b610346610850565b60405161035391906128dc565b60405180910390f35b610376600480360381019061037191906128f5565b61085e565b005b6103806108d9565b005b61039c600480360381019061039791906127b9565b610953565b005b6103b860048036038101906103b39190612967565b6109db565b005b6103c26109ef565b6040516103cf9190612683565b60405180910390f35b6103f260048036038101906103ed9190612992565b610a04565b6040516103ff9190612806565b60405180910390f35b610422600480360381019061041d91906127b9565b610a4a565b005b61043e60048036038101906104399190612992565b610a6a565b60405161044b9190612806565b60405180910390f35b61045c610a7b565b005b610466610af5565b6040516104799796959493929190612abd565b60405180910390f35b61049c60048036038101906104979190612b3f565b610b9a565b6040516104a99190612b7d565b60405180910390f35b6104cc60048036038101906104c791906128f5565b610bc6565b6040516104d99190612683565b60405180910390f35b6104ea610c29565b6040516104f7919061270c565b60405180910390f35b610508610cb9565b60405161051591906128dc565b60405180910390f35b610538600480360381019061053391906128a2565b610cbf565b6040516105459190612c4d565b60405180910390f35b610568600480360381019061056391906127b9565b610ce1565b6040516105759190612683565b60405180910390f35b610586610d03565b6040516105939190612806565b60405180910390f35b6105b660048036038101906105b191906128a2565b610d11565b6040516105c39190612806565b60405180910390f35b6105e660048036038101906105e19190612c97565b610d32565b005b6105f0610e77565b6040516105fd91906128dc565b60405180910390f35b610620600480360381019061061b91906128f5565b610e9b565b005b61063c600480360381019061063791906127b9565b610ebd565b005b61065860048036038101906106539190612d34565b610f68565b6040516106659190612806565b60405180910390f35b610688600480360381019061068391906127b9565b610fea565b005b610692611054565b60405161069f91906128dc565b60405180910390f35b5f7f5a05180f000000000000000000000000000000000000000000000000000000007bffffffffffffffffffffffffffffffffffffffffffffffffffffffff1916827bffffffffffffffffffffffffffffffffffffffffffffffffffffffff1916148061071a575061071982611078565b5b9050919050565b60606005805461073090612d9f565b80601f016020809104026020016040519081016040528092919081815260200182805461075c90612d9f565b80156107a75780601f1061077e576101008083540402835291602001916107a7565b820191905f5260205f20905b81548152906001019060200180831161078a57829003601f168201915b5050505050905090565b5f5f6107bb6110f1565b90506107c88185856110f8565b600191505092915050565b5f600454905090565b5f5f6107e66110f1565b90506107f385828561110a565b6107fe85858561119d565b60019150509392505050565b5f5f5f8381526020019081526020015f20600101549050919050565b61082f8261080a565b6108388161128d565b61084283836112a1565b50505050565b5f6012905090565b5f6108596112e4565b905090565b6108666110f1565b73ffffffffffffffffffffffffffffffffffffffff168173ffffffffffffffffffffffffffffffffffffffff16146108ca576040517f6697b23200000000000000000000000000000000000000000000000000000000815260040160405180910390fd5b6108d4828261139a565b505050565b61090a7f65d7a28e3265b37a6474929f336521b332c1681b933f6cb9f3376673440d862a6109056110f1565b610bc6565b610949576040517f08c379a000000000000000000000000000000000000000000000000000000000815260040161094090612e3f565b60405180910390fd5b6109516113dd565b565b6109847f9f2df0fed2c77648de5860a4cc508cd0818c85b8b8a1ab4ceeef8d981c8956a661097f6110f1565b610bc6565b6109c3576040517f08c379a00000000000000000000000000000000000000000000000000000000081526004016109ba90612ecd565b60405180910390fd5b6109cd828261143e565b6109d782826114bd565b5050565b6109ec6109e66110f1565b8261152d565b50565b5f600a5f9054906101000a900460ff16905090565b5f60025f8373ffffffffffffffffffffffffffffffffffffffff1673ffffffffffffffffffffffffffffffffffffffff1681526020019081526020015f20549050919050565b610a5c82610a566110f1565b8361110a565b610a66828261152d565b5050565b5f610a74826115ac565b9050919050565b610aac7f65d7a28e3265b37a6474929f336521b332c1681b933f6cb9f3376673440d862a610aa76110f1565b610bc6565b610aeb576040517f08c379a0000000000000000000000000000000000000000000000000000000008152600401610ae290612f5b565b60405180910390fd5b610af36115f2565b565b5f6060805f5f5f6060610b06611654565b610b0e61168f565b46305f5f1b5f67ffffffffffffffff811115610b2d57610b2c612f79565b5b604051908082528060200260200182016040528015610b5b5781602001602082028036833780820191505090505b507f0f00000000000000000000000000000000000000000000000000000000000000959493929190965096509650965096509650965090919293949596565b5f610bbe8260015f8681526020019081526020015f206116ca90919063ffffffff16565b905092915050565b5f5f5f8481526020019081526020015f205f015f8373ffffffffffffffffffffffffffffffffffffffff1673ffffffffffffffffffffffffffffffffffffffff1681526020019081526020015f205f9054906101000a900460ff16905092915050565b606060068054610c3890612d9f565b80601f0160208091040260200160405190810160405280929190818152602001828054610c6490612d9f565b8015610caf5780601f10610c8657610100808354040283529160200191610caf565b820191905f5260205f20905b815481529060010190602001808311610c9257829003601f168201915b5050505050905090565b5f5f1b81565b6060610cda60015f8481526020019081526020015f206116e1565b9050919050565b5f5f610ceb6110f1565b9050610cf881858561119d565b600191505092915050565b5f610d0c6107d3565b905090565b5f610d2b60015f8481526020019081526020015f20611700565b9050919050565b83421115610d7757836040517f62791302000000000000000000000000000000000000000000000000000000008152600401610d6e9190612806565b60405180910390fd5b5f7f6e71edae12b1b97f4d1f60370fef10105fa2faae0126114a169c64845d6126c9888888610da58c611713565b89604051602001610dbb96959493929190612fa6565b6040516020818303038152906040528051906020012090505f610ddd82611766565b90505f610dec8287878761177f565b90508973ffffffffffffffffffffffffffffffffffffffff168173ffffffffffffffffffffffffffffffffffffffff1614610e6057808a6040517f4b800e46000000000000000000000000000000000000000000000000000000008152600401610e57929190613005565b60405180910390fd5b610e6b8a8a8a6110f8565b50505050505050505050565b7f9f2df0fed2c77648de5860a4cc508cd0818c85b8b8a1ab4ceeef8d981c8956a681565b610ea48261080a565b610ead8161128d565b610eb7838361139a565b50505050565b610eee7f9f2df0fed2c77648de5860a4cc508cd0818c85b8b8a1ab4ceeef8d981c8956a6610ee96110f1565b610bc6565b610f2d576040517f08c379a0000000000000000000000000000000000000000000000000000000008152600401610f249061309c565b60405180910390fd5b5f610f37826117ad565b9050610f4e838284610f4991906130e7565b61143e565b610f63838284610f5e91906130e7565b6114bd565b505050565b5f60035f8473ffffffffffffffffffffffffffffffffffffffff1673ffffffffffffffffffffffffffffffffffffffff1681526020019081526020015f205f8373ffffffffffffffffffffffffffffffffffffffff1673ffffffffffffffffffffffffffffffffffffffff1681526020019081526020015f2054905092915050565b610ffd5f5f1b610ff86110f1565b610bc6565b61103c576040517f08c379a000000000000000000000000000000000000000000000000000000000815260040161103390613164565b60405180910390fd5b611046828261143e565b61105082826114bd565b5050565b7f65d7a28e3265b37a6474929f336521b332c1681b933f6cb9f3376673440d862a81565b5f7f7965db0b000000000000000000000000000000000000000000000000000000007bffffffffffffffffffffffffffffffffffffffffffffffffffffffff1916827bffffffffffffffffffffffffffffffffffffffffffffffffffffffff191614806110ea57506110e9826117ce565b5b9050919050565b5f33905090565b6111058383836001611837565b505050565b5f6111158484610f68565b90507fffffffffffffffffffffffffffffffffffffffffffffffffffffffffffffffff8110156111975781811015611188578281836040517ffb8f41b200000000000000000000000000000000000000000000000000000000815260040161117f93929190613182565b60405180910390fd5b61119684848484035f611837565b5b50505050565b5f73ffffffffffffffffffffffffffffffffffffffff168373ffffffffffffffffffffffffffffffffffffffff160361120d575f6040517f96c6fd1e0000000000000000000000000000000000000000000000000000000081526004016112049190612b7d565b60405180910390fd5b5f73ffffffffffffffffffffffffffffffffffffffff168273ffffffffffffffffffffffffffffffffffffffff160361127d575f6040517fec442f050000000000000000000000000000000000000000000000000000000081526004016112749190612b7d565b60405180910390fd5b611288838383611a06565b505050565b61129e816112996110f1565b611a16565b50565b5f5f6112ad8484611a67565b905080156112da576112d88360015f8781526020019081526020015f20611b5090919063ffffffff16565b505b8091505092915050565b5f7f000000000000000000000000000000000000000000000000000000000000000073ffffffffffffffffffffffffffffffffffffffff163073ffffffffffffffffffffffffffffffffffffffff1614801561135f57507f000000000000000000000000000000000000000000000000000000000000000046145b1561138c577f00000000000000000000000000000000000000000000000000000000000000009050611397565b611394611b7d565b90505b90565b5f5f6113a68484611c12565b905080156113d3576113d18360015f8781526020019081526020015f20611cfb90919063ffffffff16565b505b8091505092915050565b6113e5611d28565b5f600a5f6101000a81548160ff0219169083151502179055507f5db9ee0a495bf2e6ff9c91a7834c1ba4fdd244a5e8aa4e537bd38aeae4b073aa6114276110f1565b6040516114349190612b7d565b60405180910390a1565b5f73ffffffffffffffffffffffffffffffffffffffff168273ffffffffffffffffffffffffffffffffffffffff16036114ae575f6040517fec442f050000000000000000000000000000000000000000000000000000000081526004016114a59190612b7d565b60405180910390fd5b6114b95f8383611a06565b5050565b6114c56110f1565b73ffffffffffffffffffffffffffffffffffffffff168273ffffffffffffffffffffffffffffffffffffffff167f6c08563db066c6418c703c5d5dd75e71b7f23aa31441a280582d6a9da0b6ffb2836040516115219190612806565b60405180910390a35050565b5f73ffffffffffffffffffffffffffffffffffffffff168273ffffffffffffffffffffffffffffffffffffffff160361159d575f6040517f96c6fd1e0000000000000000000000000000000000000000000000000000000081526004016115949190612b7d565b60405180910390fd5b6115a8825f83611a06565b5050565b5f60095f8373ffffffffffffffffffffffffffffffffffffffff1673ffffffffffffffffffffffffffffffffffffffff1681526020019081526020015f20549050919050565b6115fa611d68565b6001600a5f6101000a81548160ff0219169083151502179055507f62e78cea01bee320cd4e420270b5ea74000d11b0c9f74754ebdbfc544b05a25861163d6110f1565b60405161164a9190612b7d565b60405180910390a1565b606061168a60077f0000000000000000000000000000000000000000000000000000000000000000611da990919063ffffffff16565b905090565b60606116c560087f0000000000000000000000000000000000000000000000000000000000000000611da990919063ffffffff16565b905090565b5f6116d7835f0183611e56565b5f1c905092915050565b60605f6116ef835f01611e7d565b905060608190508092505050919050565b5f61170c825f01611ed6565b9050919050565b5f60095f8373ffffffffffffffffffffffffffffffffffffffff1673ffffffffffffffffffffffffffffffffffffffff1681526020019081526020015f205f815480929190600101919050559050919050565b5f6117786117726112e4565b83611ee5565b9050919050565b5f5f5f5f61178f88888888611f25565b92509250925061179f828261200c565b829350505050949350505050565b5f6064600a836117bd91906131b7565b6117c79190613225565b9050919050565b5f7f01ffc9a7000000000000000000000000000000000000000000000000000000007bffffffffffffffffffffffffffffffffffffffffffffffffffffffff1916827bffffffffffffffffffffffffffffffffffffffffffffffffffffffff1916149050919050565b5f73ffffffffffffffffffffffffffffffffffffffff168473ffffffffffffffffffffffffffffffffffffffff16036118a7575f6040517fe602df0500000000000000000000000000000000000000000000000000000000815260040161189e9190612b7d565b60405180910390fd5b5f73ffffffffffffffffffffffffffffffffffffffff168373ffffffffffffffffffffffffffffffffffffffff1603611917575f6040517f94280d6200000000000000000000000000000000000000000000000000000000815260040161190e9190612b7d565b60405180910390fd5b8160035f8673ffffffffffffffffffffffffffffffffffffffff1673ffffffffffffffffffffffffffffffffffffffff1681526020019081526020015f205f8573ffffffffffffffffffffffffffffffffffffffff1673ffffffffffffffffffffffffffffffffffffffff1681526020019081526020015f20819055508015611a00578273ffffffffffffffffffffffffffffffffffffffff168473ffffffffffffffffffffffffffffffffffffffff167f8c5be1e5ebec7d5bd14f71427d1e84f3dd0314c0f7b2291e5b200ac8c7c3b925846040516119f79190612806565b60405180910390a35b50505050565b611a1183838361216e565b505050565b611a208282610bc6565b611a635780826040517fe2517d3f000000000000000000000000000000000000000000000000000000008152600401611a5a929190613255565b60405180910390fd5b5050565b5f611a728383610bc6565b611b465760015f5f8581526020019081526020015f205f015f8473ffffffffffffffffffffffffffffffffffffffff1673ffffffffffffffffffffffffffffffffffffffff1681526020019081526020015f205f6101000a81548160ff021916908315150217905550611ae36110f1565b73ffffffffffffffffffffffffffffffffffffffff168273ffffffffffffffffffffffffffffffffffffffff16847f2f8788117e7eff1d82e926ec794901d17c78024a50270940304540a733656f0d60405160405180910390a460019050611b4a565b5f90505b92915050565b5f611b75835f018373ffffffffffffffffffffffffffffffffffffffff165f1b612186565b905092915050565b5f7f8b73c3c69bb8fe3d512ecc4cf759cc79239f7b179b0ffacaa9a75d522b39400f7f00000000000000000000000000000000000000000000000000000000000000007f00000000000000000000000000000000000000000000000000000000000000004630604051602001611bf795949392919061327c565b60405160208183030381529060405280519060200120905090565b5f611c1d8383610bc6565b15611cf1575f5f5f8581526020019081526020015f205f015f8473ffffffffffffffffffffffffffffffffffffffff1673ffffffffffffffffffffffffffffffffffffffff1681526020019081526020015f205f6101000a81548160ff021916908315150217905550611c8e6110f1565b73ffffffffffffffffffffffffffffffffffffffff168273ffffffffffffffffffffffffffffffffffffffff16847ff6391f5c32d9c69d2a47ea670b442974b53935d1edc7fd64eb21e047a839171b60405160405180910390a460019050611cf5565b5f90505b92915050565b5f611d20835f018373ffffffffffffffffffffffffffffffffffffffff165f1b6121ed565b905092915050565b611d306109ef565b611d66576040517f8dfc202b00000000000000000000000000000000000000000000000000000000815260040160405180910390fd5b565b611d706109ef565b15611da7576040517fd93c066500000000000000000000000000000000000000000000000000000000815260040160405180910390fd5b565b606060ff5f1b8314611dc557611dbe836122e9565b9050611e50565b818054611dd190612d9f565b80601f0160208091040260200160405190810160405280929190818152602001828054611dfd90612d9f565b8015611e485780601f10611e1f57610100808354040283529160200191611e48565b820191905f5260205f20905b815481529060010190602001808311611e2b57829003601f168201915b505050505090505b92915050565b5f825f018281548110611e6c57611e6b6132cd565b5b905f5260205f200154905092915050565b6060815f01805480602002602001604051908101604052809291908181526020018280548015611eca57602002820191905f5260205f20905b815481526020019060010190808311611eb6575b50505050509050919050565b5f815f01805490509050919050565b5f6040517f190100000000000000000000000000000000000000000000000000000000000081528360028201528260228201526042812091505092915050565b5f5f5f7f7fffffffffffffffffffffffffffffff5d576e7357a4501ddfe92f46681b20a0845f1c1115611f61575f600385925092509250612002565b5f6001888888886040515f8152602001604052604051611f8494939291906132fa565b6020604051602081039080840390855afa158015611fa4573d5f5f3e3d5ffd5b5050506020604051035190505f73ffffffffffffffffffffffffffffffffffffffff168173ffffffffffffffffffffffffffffffffffffffff1603611ff5575f60015f5f1b93509350935050612002565b805f5f5f1b935093509350505b9450945094915050565b5f600381111561201f5761201e61333d565b5b8260038111156120325761203161333d565b5b031561216a576001600381111561204c5761204b61333d565b5b82600381111561205f5761205e61333d565b5b03612096576040517ff645eedf00000000000000000000000000000000000000000000000000000000815260040160405180910390fd5b600260038111156120aa576120a961333d565b5b8260038111156120bd576120bc61333d565b5b0361210157805f1c6040517ffce698f70000000000000000000000000000000000000000000000000000000081526004016120f89190612806565b60405180910390fd5b6003808111156121145761211361333d565b5b8260038111156121275761212661333d565b5b0361216957806040517fd78bce0c00000000000000000000000000000000000000000000000000000000815260040161216091906128dc565b60405180910390fd5b5b5050565b612176611d68565b61218183838361235b565b505050565b5f6121918383612577565b6121e357825f0182908060018154018082558091505060019003905f5260205f20015f9091909190915055825f0180549050836001015f8481526020019081526020015f2081905550600190506121e7565b5f90505b92915050565b5f5f836001015f8481526020019081526020015f205490505f81146122de575f60018261221a919061336a565b90505f6001865f0180549050612230919061336a565b9050808214612296575f865f01828154811061224f5761224e6132cd565b5b905f5260205f200154905080875f0184815481106122705761226f6132cd565b5b905f5260205f20018190555083876001015f8381526020019081526020015f2081905550505b855f018054806122a9576122a861339d565b5b600190038181905f5260205f20015f90559055856001015f8681526020019081526020015f205f9055600193505050506122e3565b5f9150505b92915050565b60605f6122f583612597565b90505f602067ffffffffffffffff81111561231357612312612f79565b5b6040519080825280601f01601f1916602001820160405280156123455781602001600182028036833780820191505090505b5090508181528360208201528092505050919050565b5f73ffffffffffffffffffffffffffffffffffffffff168373ffffffffffffffffffffffffffffffffffffffff16036123ab578060045f82825461239f91906130e7565b9250508190555061247b565b5f60025f8573ffffffffffffffffffffffffffffffffffffffff1673ffffffffffffffffffffffffffffffffffffffff1681526020019081526020015f2054905081811015612435578381836040517fe450d38c00000000000000000000000000000000000000000000000000000000815260040161242c93929190613182565b60405180910390fd5b81810360025f8673ffffffffffffffffffffffffffffffffffffffff1673ffffffffffffffffffffffffffffffffffffffff1681526020019081526020015f2081905550505b5f73ffffffffffffffffffffffffffffffffffffffff168273ffffffffffffffffffffffffffffffffffffffff16036124c2578060045f828254039250508190555061250d565b8060025f8473ffffffffffffffffffffffffffffffffffffffff1673ffffffffffffffffffffffffffffffffffffffff1681526020019081526020015f205f82825401925050819055505b8173ffffffffffffffffffffffffffffffffffffffff168373ffffffffffffffffffffffffffffffffffffffff167fddf252ad1be2c89b69c2b068fc378daa952ba7f163c4a11628f55a4df523b3ef8360405161256a9190612806565b60405180910390a3505050565b5f5f836001015f8481526020019081526020015f20541415905092915050565b5f5f60ff835f1c169050601f8111156125dc576040517fb3512b0c00000000000000000000000000000000000000000000000000000000815260040160405180910390fd5b80915050919050565b5f5ffd5b5f7fffffffff0000000000000000000000000000000000000000000000000000000082169050919050565b61261d816125e9565b8114612627575f5ffd5b50565b5f8135905061263881612614565b92915050565b5f60208284031215612653576126526125e5565b5b5f6126608482850161262a565b91505092915050565b5f8115159050919050565b61267d81612669565b82525050565b5f6020820190506126965f830184612674565b92915050565b5f81519050919050565b5f82825260208201905092915050565b8281835e5f83830152505050565b5f601f19601f8301169050919050565b5f6126de8261269c565b6126e881856126a6565b93506126f88185602086016126b6565b612701816126c4565b840191505092915050565b5f6020820190508181035f83015261272481846126d4565b905092915050565b5f73ffffffffffffffffffffffffffffffffffffffff82169050919050565b5f6127558261272c565b9050919050565b6127658161274b565b811461276f575f5ffd5b50565b5f813590506127808161275c565b92915050565b5f819050919050565b61279881612786565b81146127a2575f5ffd5b50565b5f813590506127b38161278f565b92915050565b5f5f604083850312156127cf576127ce6125e5565b5b5f6127dc85828601612772565b92505060206127ed858286016127a5565b9150509250929050565b61280081612786565b82525050565b5f6020820190506128195f8301846127f7565b92915050565b5f5f5f60608486031215612836576128356125e5565b5b5f61284386828701612772565b935050602061285486828701612772565b9250506040612865868287016127a5565b9150509250925092565b5f819050919050565b6128818161286f565b811461288b575f5ffd5b50565b5f8135905061289c81612878565b92915050565b5f602082840312156128b7576128b66125e5565b5b5f6128c48482850161288e565b91505092915050565b6128d68161286f565b82525050565b5f6020820190506128ef5f8301846128cd565b92915050565b5f5f6040838503121561290b5761290a6125e5565b5b5f6129188582860161288e565b925050602061292985828601612772565b9150509250929050565b5f60ff82169050919050565b61294881612933565b82525050565b5f6020820190506129615f83018461293f565b92915050565b5f6020828403121561297c5761297b6125e5565b5b5f612989848285016127a5565b91505092915050565b5f602082840312156129a7576129a66125e5565b5b5f6129b484828501612772565b91505092915050565b5f7fff0000000000000000000000000000000000000000000000000000000000000082169050919050565b6129f1816129bd565b82525050565b612a008161274b565b82525050565b5f81519050919050565b5f82825260208201905092915050565b5f819050602082019050919050565b612a3881612786565b82525050565b5f612a498383612a2f565b60208301905092915050565b5f602082019050919050565b5f612a6b82612a06565b612a758185612a10565b9350612a8083612a20565b805f5b83811015612ab0578151612a978882612a3e565b9750612aa283612a55565b925050600181019050612a83565b5085935050505092915050565b5f60e082019050612ad05f83018a6129e8565b8181036020830152612ae281896126d4565b90508181036040830152612af681886126d4565b9050612b0560608301876127f7565b612b1260808301866129f7565b612b1f60a08301856128cd565b81810360c0830152612b318184612a61565b905098975050505050505050565b5f5f60408385031215612b5557612b546125e5565b5b5f612b628582860161288e565b9250506020612b73858286016127a5565b9150509250929050565b5f602082019050612b905f8301846129f7565b92915050565b5f81519050919050565b5f82825260208201905092915050565b5f819050602082019050919050565b612bc88161274b565b82525050565b5f612bd98383612bbf565b60208301905092915050565b5f602082019050919050565b5f612bfb82612b96565b612c058185612ba0565b9350612c1083612bb0565b805f5b83811015612c40578151612c278882612bce565b9750612c3283612be5565b925050600181019050612c13565b5085935050505092915050565b5f6020820190508181035f830152612c658184612bf1565b905092915050565b612c7681612933565b8114612c80575f5ffd5b50565b5f81359050612c9181612c6d565b92915050565b5f5f5f5f5f5f5f60e0888a031215612cb257612cb16125e5565b5b5f612cbf8a828b01612772565b9750506020612cd08a828b01612772565b9650506040612ce18a828b016127a5565b9550506060612cf28a828b016127a5565b9450506080612d038a828b01612c83565b93505060a0612d148a828b0161288e565b92505060c0612d258a828b0161288e565b91505092959891949750929550565b5f5f60408385031215612d4a57612d496125e5565b5b5f612d5785828601612772565b9250506020612d6885828601612772565b9150509250929050565b7f4e487b71000000000000000000000000000000000000000000000000000000005f52602260045260245ffd5b5f6002820490506001821680612db657607f821691505b602082108103612dc957612dc8612d72565b5b50919050565b7f232323204f5455534f4e453a204d55535420484156452050415553455220524f5f8201527f4c4520544f20554e504155534500000000000000000000000000000000000000602082015250565b5f612e29602d836126a6565b9150612e3482612dcf565b604082019050919050565b5f6020820190508181035f830152612e5681612e1d565b9050919050565b7f232323204f5455534f4e453a204d5553542048415645204d494e54455220524f5f8201527f4c4520544f204d494e5400000000000000000000000000000000000000000000602082015250565b5f612eb7602a836126a6565b9150612ec282612e5d565b604082019050919050565b5f6020820190508181035f830152612ee481612eab565b9050919050565b7f232323204f5455534f4e453a204d55535420484156452050415553455220524f5f8201527f4c4520544f205041555345000000000000000000000000000000000000000000602082015250565b5f612f45602b836126a6565b9150612f5082612eeb565b604082019050919050565b5f6020820190508181035f830152612f7281612f39565b9050919050565b7f4e487b71000000000000000000000000000000000000000000000000000000005f52604160045260245ffd5b5f60c082019050612fb95f8301896128cd565b612fc660208301886129f7565b612fd360408301876129f7565b612fe060608301866127f7565b612fed60808301856127f7565b612ffa60a08301846127f7565b979650505050505050565b5f6040820190506130185f8301856129f7565b61302560208301846129f7565b9392505050565b7f232323204f5455534f4e453a204d5553542048415645204d494e54455220524f5f8201527f4c45000000000000000000000000000000000000000000000000000000000000602082015250565b5f6130866022836126a6565b91506130918261302c565b604082019050919050565b5f6020820190508181035f8301526130b38161307a565b9050919050565b7f4e487b71000000000000000000000000000000000000000000000000000000005f52601160045260245ffd5b5f6130f182612786565b91506130fc83612786565b9250828201905080821115613114576131136130ba565b5b92915050565b7f232323204f5455534f4e453a2041444d494e204f4e4c590000000000000000005f82015250565b5f61314e6017836126a6565b91506131598261311a565b602082019050919050565b5f6020820190508181035f83015261317b81613142565b9050919050565b5f6060820190506131955f8301866129f7565b6131a260208301856127f7565b6131af60408301846127f7565b949350505050565b5f6131c182612786565b91506131cc83612786565b92508282026131da81612786565b915082820484148315176131f1576131f06130ba565b5b5092915050565b7f4e487b71000000000000000000000000000000000000000000000000000000005f52601260045260245ffd5b5f61322f82612786565b915061323a83612786565b92508261324a576132496131f8565b5b828204905092915050565b5f6040820190506132685f8301856129f7565b61327560208301846128cd565b9392505050565b5f60a08201905061328f5f8301886128cd565b61329c60208301876128cd565b6132a960408301866128cd565b6132b660608301856127f7565b6132c360808301846129f7565b9695505050505050565b7f4e487b71000000000000000000000000000000000000000000000000000000005f52603260045260245ffd5b5f60808201905061330d5f8301876128cd565b61331a602083018661293f565b61332760408301856128cd565b61333460608301846128cd565b95945050505050565b7f4e487b71000000000000000000000000000000000000000000000000000000005f52602160045260245ffd5b5f61337482612786565b915061337f83612786565b9250828203905081811115613397576133966130ba565b5b92915050565b7f4e487b71000000000000000000000000000000000000000000000000000000005f52603160045260245ffdfea264697066735822122079be94213a45b506ee7c69006218db106f5baa41d730cadea617da04053d4cdb64736f6c634300081e0033",
			"opcodes": "PUSH2 0x160 PUSH1 0x40 MSTORE CALLVALUE DUP1 ISZERO PUSH2 0x10 JUMPI PUSH0 PUSH0 REVERT JUMPDEST POP PUSH1 0x40 MLOAD DUP1 PUSH1 0x40 ADD PUSH1 0x40 MSTORE DUP1 PUSH1 0x7 DUP2 MSTORE PUSH1 0x20 ADD PUSH32 0x4F5455534F4E4500000000000000000000000000000000000000000000000000 DUP2 MSTORE POP DUP1 PUSH1 0x40 MLOAD DUP1 PUSH1 0x40 ADD PUSH1 0x40 MSTORE DUP1 PUSH1 0x1 DUP2 MSTORE PUSH1 0x20 ADD PUSH32 0x3100000000000000000000000000000000000000000000000000000000000000 DUP2 MSTORE POP PUSH1 0x40 MLOAD DUP1 PUSH1 0x40 ADD PUSH1 0x40 MSTORE DUP1 PUSH1 0x7 DUP2 MSTORE PUSH1 0x20 ADD PUSH32 0x4F7475734F6E6500000000000000000000000000000000000000000000000000 DUP2 MSTORE POP PUSH1 0x40 MLOAD DUP1 PUSH1 0x40 ADD PUSH1 0x40 MSTORE DUP1 PUSH1 0x7 DUP2 MSTORE PUSH1 0x20 ADD PUSH32 0x4F5455534F4E4500000000000000000000000000000000000000000000000000 DUP2 MSTORE POP DUP2 PUSH1 0x5 SWAP1 DUP2 PUSH2 0xF9 SWAP2 SWAP1 PUSH2 0x812 JUMP JUMPDEST POP DUP1 PUSH1 0x6 SWAP1 DUP2 PUSH2 0x109 SWAP2 SWAP1 PUSH2 0x812 JUMP JUMPDEST POP POP POP PUSH2 0x120 PUSH1 0x7 DUP4 PUSH2 0x258 PUSH1 0x20 SHL SWAP1 SWAP2 SWAP1 PUSH1 0x20 SHR JUMP JUMPDEST PUSH2 0x120 DUP2 DUP2 MSTORE POP POP PUSH2 0x13C PUSH1 0x8 DUP3 PUSH2 0x258 PUSH1 0x20 SHL SWAP1 SWAP2 SWAP1 PUSH1 0x20 SHR JUMP JUMPDEST PUSH2 0x140 DUP2 DUP2 MSTORE POP POP DUP2 DUP1 MLOAD SWAP1 PUSH1 0x20 ADD KECCAK256 PUSH1 0xE0 DUP2 DUP2 MSTORE POP POP DUP1 DUP1 MLOAD SWAP1 PUSH1 0x20 ADD KECCAK256 PUSH2 0x100 DUP2 DUP2 MSTORE POP POP CHAINID PUSH1 0xA0 DUP2 DUP2 MSTORE POP POP PUSH2 0x179 PUSH2 0x2A5 PUSH1 0x20 SHL PUSH1 0x20 SHR JUMP JUMPDEST PUSH1 0x80 DUP2 DUP2 MSTORE POP POP ADDRESS PUSH20 0xFFFFFFFFFFFFFFFFFFFFFFFFFFFFFFFFFFFFFFFF AND PUSH1 0xC0 DUP2 PUSH20 0xFFFFFFFFFFFFFFFFFFFFFFFFFFFFFFFFFFFFFFFF AND DUP2 MSTORE POP POP POP POP POP PUSH2 0x1D6 PUSH0 PUSH0 SHL PUSH2 0x1CB PUSH2 0x2FF PUSH1 0x20 SHL PUSH1 0x20 SHR JUMP JUMPDEST PUSH2 0x306 PUSH1 0x20 SHL PUSH1 0x20 SHR JUMP JUMPDEST POP PUSH2 0x214 PUSH32 0x9F2DF0FED2C77648DE5860A4CC508CD0818C85B8B8A1AB4CEEEF8D981C8956A6 PUSH2 0x209 PUSH2 0x2FF PUSH1 0x20 SHL PUSH1 0x20 SHR JUMP JUMPDEST PUSH2 0x306 PUSH1 0x20 SHL PUSH1 0x20 SHR JUMP JUMPDEST POP PUSH2 0x252 PUSH32 0x65D7A28E3265B37A6474929F336521B332C1681B933F6CB9F3376673440D862A PUSH2 0x247 PUSH2 0x2FF PUSH1 0x20 SHL PUSH1 0x20 SHR JUMP JUMPDEST PUSH2 0x306 PUSH1 0x20 SHL PUSH1 0x20 SHR JUMP JUMPDEST POP PUSH2 0xAB1 JUMP JUMPDEST PUSH0 PUSH1 0x20 DUP4 MLOAD LT ISZERO PUSH2 0x279 JUMPI PUSH2 0x272 DUP4 PUSH2 0x34F PUSH1 0x20 SHL PUSH1 0x20 SHR JUMP JUMPDEST SWAP1 POP PUSH2 0x29F JUMP JUMPDEST DUP3 PUSH2 0x289 DUP4 PUSH2 0x3B4 PUSH1 0x20 SHL PUSH1 0x20 SHR JUMP JUMPDEST PUSH0 ADD SWAP1 DUP2 PUSH2 0x297 SWAP2 SWAP1 PUSH2 0x812 JUMP JUMPDEST POP PUSH1 0xFF PUSH0 SHL SWAP1 POP JUMPDEST SWAP3 SWAP2 POP POP JUMP JUMPDEST PUSH0 PUSH32 0x8B73C3C69BB8FE3D512ECC4CF759CC79239F7B179B0FFACAA9A75D522B39400F PUSH1 0xE0 MLOAD PUSH2 0x100 MLOAD CHAINID ADDRESS PUSH1 0x40 MLOAD PUSH1 0x20 ADD PUSH2 0x2E4 SWAP6 SWAP5 SWAP4 SWAP3 SWAP2 SWAP1 PUSH2 0x947 JUMP JUMPDEST PUSH1 0x40 MLOAD PUSH1 0x20 DUP2 DUP4 SUB SUB DUP2 MSTORE SWAP1 PUSH1 0x40 MSTORE DUP1 MLOAD SWAP1 PUSH1 0x20 ADD KECCAK256 SWAP1 POP SWAP1 JUMP JUMPDEST PUSH0 CALLER SWAP1 POP SWAP1 JUMP JUMPDEST PUSH0 PUSH0 PUSH2 0x318 DUP5 DUP5 PUSH2 0x3BD PUSH1 0x20 SHL PUSH1 0x20 SHR JUMP JUMPDEST SWAP1 POP DUP1 ISZERO PUSH2 0x345 JUMPI PUSH2 0x343 DUP4 PUSH1 0x1 PUSH0 DUP8 DUP2 MSTORE PUSH1 0x20 ADD SWAP1 DUP2 MSTORE PUSH1 0x20 ADD PUSH0 KECCAK256 PUSH2 0x4B2 PUSH1 0x20 SHL SWAP1 SWAP2 SWAP1 PUSH1 0x20 SHR JUMP JUMPDEST POP JUMPDEST DUP1 SWAP2 POP POP SWAP3 SWAP2 POP POP JUMP JUMPDEST PUSH0 PUSH0 DUP3 SWAP1 POP PUSH1 0x1F DUP2 MLOAD GT ISZERO PUSH2 0x39B JUMPI DUP3 PUSH1 0x40 MLOAD PUSH32 0x305A27A900000000000000000000000000000000000000000000000000000000 DUP2 MSTORE PUSH1 0x4 ADD PUSH2 0x392 SWAP2 SWAP1 PUSH2 0x9FE JUMP JUMPDEST PUSH1 0x40 MLOAD DUP1 SWAP2 SUB SWAP1 REVERT JUMPDEST DUP1 MLOAD DUP2 PUSH2 0x3A7 SWAP1 PUSH2 0xA4B JUMP JUMPDEST PUSH0 SHR OR PUSH0 SHL SWAP2 POP POP SWAP2 SWAP1 POP JUMP JUMPDEST PUSH0 DUP2 SWAP1 POP SWAP2 SWAP1 POP JUMP JUMPDEST PUSH0 PUSH2 0x3CE DUP4 DUP4 PUSH2 0x4E5 PUSH1 0x20 SHL PUSH1 0x20 SHR JUMP JUMPDEST PUSH2 0x4A8 JUMPI PUSH1 0x1 PUSH0 PUSH0 DUP6 DUP2 MSTORE PUSH1 0x20 ADD SWAP1 DUP2 MSTORE PUSH1 0x20 ADD PUSH0 KECCAK256 PUSH0 ADD PUSH0 DUP5 PUSH20 0xFFFFFFFFFFFFFFFFFFFFFFFFFFFFFFFFFFFFFFFF AND PUSH20 0xFFFFFFFFFFFFFFFFFFFFFFFFFFFFFFFFFFFFFFFF AND DUP2 MSTORE PUSH1 0x20 ADD SWAP1 DUP2 MSTORE PUSH1 0x20 ADD PUSH0 KECCAK256 PUSH0 PUSH2 0x100 EXP DUP2 SLOAD DUP2 PUSH1 0xFF MUL NOT AND SWAP1 DUP4 ISZERO ISZERO MUL OR SWAP1 SSTORE POP PUSH2 0x445 PUSH2 0x2FF PUSH1 0x20 SHL PUSH1 0x20 SHR JUMP JUMPDEST PUSH20 0xFFFFFFFFFFFFFFFFFFFFFFFFFFFFFFFFFFFFFFFF AND DUP3 PUSH20 0xFFFFFFFFFFFFFFFFFFFFFFFFFFFFFFFFFFFFFFFF AND DUP5 PUSH32 0x2F8788117E7EFF1D82E926EC794901D17C78024A50270940304540A733656F0D PUSH1 0x40 MLOAD PUSH1 0x40 MLOAD DUP1 SWAP2 SUB SWAP1 LOG4 PUSH1 0x1 SWAP1 POP PUSH2 0x4AC JUMP JUMPDEST PUSH0 SWAP1 POP JUMPDEST SWAP3 SWAP2 POP POP JUMP JUMPDEST PUSH0 PUSH2 0x4DD DUP4 PUSH0 ADD DUP4 PUSH20 0xFFFFFFFFFFFFFFFFFFFFFFFFFFFFFFFFFFFFFFFF AND PUSH0 SHL PUSH2 0x548 PUSH1 0x20 SHL PUSH1 0x20 SHR JUMP JUMPDEST SWAP1 POP SWAP3 SWAP2 POP POP JUMP JUMPDEST PUSH0 PUSH0 PUSH0 DUP5 DUP2 MSTORE PUSH1 0x20 ADD SWAP1 DUP2 MSTORE PUSH1 0x20 ADD PUSH0 KECCAK256 PUSH0 ADD PUSH0 DUP4 PUSH20 0xFFFFFFFFFFFFFFFFFFFFFFFFFFFFFFFFFFFFFFFF AND PUSH20 0xFFFFFFFFFFFFFFFFFFFFFFFFFFFFFFFFFFFFFFFF AND DUP2 MSTORE PUSH1 0x20 ADD SWAP1 DUP2 MSTORE PUSH1 0x20 ADD PUSH0 KECCAK256 PUSH0 SWAP1 SLOAD SWAP1 PUSH2 0x100 EXP SWAP1 DIV PUSH1 0xFF AND SWAP1 POP SWAP3 SWAP2 POP POP JUMP JUMPDEST PUSH0 PUSH2 0x559 DUP4 DUP4 PUSH2 0x5B5 PUSH1 0x20 SHL PUSH1 0x20 SHR JUMP JUMPDEST PUSH2 0x5AB JUMPI DUP3 PUSH0 ADD DUP3 SWAP1 DUP1 PUSH1 0x1 DUP2 SLOAD ADD DUP1 DUP3 SSTORE DUP1 SWAP2 POP POP PUSH1 0x1 SWAP1 SUB SWAP1 PUSH0 MSTORE PUSH1 0x20 PUSH0 KECCAK256 ADD PUSH0 SWAP1 SWAP2 SWAP1 SWAP2 SWAP1 SWAP2 POP SSTORE DUP3 PUSH0 ADD DUP1 SLOAD SWAP1 POP DUP4 PUSH1 0x1 ADD PUSH0 DUP5 DUP2 MSTORE PUSH1 0x20 ADD SWAP1 DUP2 MSTORE PUSH1 0x20 ADD PUSH0 KECCAK256 DUP2 SWAP1 SSTORE POP PUSH1 0x1 SWAP1 POP PUSH2 0x5AF JUMP JUMPDEST PUSH0 SWAP1 POP JUMPDEST SWAP3 SWAP2 POP POP JUMP JUMPDEST PUSH0 PUSH0 DUP4 PUSH1 0x1 ADD PUSH0 DUP5 DUP2 MSTORE PUSH1 0x20 ADD SWAP1 DUP2 MSTORE PUSH1 0x20 ADD PUSH0 KECCAK256 SLOAD EQ ISZERO SWAP1 POP SWAP3 SWAP2 POP POP JUMP JUMPDEST PUSH0 DUP2 MLOAD SWAP1 POP SWAP2 SWAP1 POP JUMP JUMPDEST PUSH32 0x4E487B7100000000000000000000000000000000000000000000000000000000 PUSH0 MSTORE PUSH1 0x41 PUSH1 0x4 MSTORE PUSH1 0x24 PUSH0 REVERT JUMPDEST PUSH32 0x4E487B7100000000000000000000000000000000000000000000000000000000 PUSH0 MSTORE PUSH1 0x22 PUSH1 0x4 MSTORE PUSH1 0x24 PUSH0 REVERT JUMPDEST PUSH0 PUSH1 0x2 DUP3 DIV SWAP1 POP PUSH1 0x1 DUP3 AND DUP1 PUSH2 0x650 JUMPI PUSH1 0x7F DUP3 AND SWAP2 POP JUMPDEST PUSH1 0x20 DUP3 LT DUP2 SUB PUSH2 0x663 JUMPI PUSH2 0x662 PUSH2 0x60C JUMP JUMPDEST JUMPDEST POP SWAP2 SWAP1 POP JUMP JUMPDEST PUSH0 DUP2 SWAP1 POP DUP2 PUSH0 MSTORE PUSH1 0x20 PUSH0 KECCAK256 SWAP1 POP SWAP2 SWAP1 POP JUMP JUMPDEST PUSH0 PUSH1 0x20 PUSH1 0x1F DUP4 ADD DIV SWAP1 POP SWAP2 SWAP1 POP JUMP JUMPDEST PUSH0 DUP3 DUP3 SHL SWAP1 POP SWAP3 SWAP2 POP POP JUMP JUMPDEST PUSH0 PUSH1 0x8 DUP4 MUL PUSH2 0x6C5 PUSH32 0xFFFFFFFFFFFFFFFFFFFFFFFFFFFFFFFFFFFFFFFFFFFFFFFFFFFFFFFFFFFFFFFF DUP3 PUSH2 0x68A JUMP JUMPDEST PUSH2 0x6CF DUP7 DUP4 PUSH2 0x68A JUMP JUMPDEST SWAP6 POP DUP1 NOT DUP5 AND SWAP4 POP DUP1 DUP7 AND DUP5 OR SWAP3 POP POP POP SWAP4 SWAP3 POP POP POP JUMP JUMPDEST PUSH0 DUP2 SWAP1 POP SWAP2 SWAP1 POP JUMP JUMPDEST PUSH0 DUP2 SWAP1 POP SWAP2 SWAP1 POP JUMP JUMPDEST PUSH0 PUSH2 0x713 PUSH2 0x70E PUSH2 0x709 DUP5 PUSH2 0x6E7 JUMP JUMPDEST PUSH2 0x6F0 JUMP JUMPDEST PUSH2 0x6E7 JUMP JUMPDEST SWAP1 POP SWAP2 SWAP1 POP JUMP JUMPDEST PUSH0 DUP2 SWAP1 POP SWAP2 SWAP1 POP JUMP JUMPDEST PUSH2 0x72C DUP4 PUSH2 0x6F9 JUMP JUMPDEST PUSH2 0x740 PUSH2 0x738 DUP3 PUSH2 0x71A JUMP JUMPDEST DUP5 DUP5 SLOAD PUSH2 0x696 JUMP JUMPDEST DUP3 SSTORE POP POP POP POP JUMP JUMPDEST PUSH0 PUSH0 SWAP1 POP SWAP1 JUMP JUMPDEST PUSH2 0x757 PUSH2 0x748 JUMP JUMPDEST PUSH2 0x762 DUP2 DUP5 DUP5 PUSH2 0x723 JUMP JUMPDEST POP POP POP JUMP JUMPDEST JUMPDEST DUP2 DUP2 LT ISZERO PUSH2 0x785 JUMPI PUSH2 0x77A PUSH0 DUP3 PUSH2 0x74F JUMP JUMPDEST PUSH1 0x1 DUP2 ADD SWAP1 POP PUSH2 0x768 JUMP JUMPDEST POP POP JUMP JUMPDEST PUSH1 0x1F DUP3 GT ISZERO PUSH2 0x7CA JUMPI PUSH2 0x79B DUP2 PUSH2 0x669 JUMP JUMPDEST PUSH2 0x7A4 DUP5 PUSH2 0x67B JUMP JUMPDEST DUP2 ADD PUSH1 0x20 DUP6 LT ISZERO PUSH2 0x7B3 JUMPI DUP2 SWAP1 POP JUMPDEST PUSH2 0x7C7 PUSH2 0x7BF DUP6 PUSH2 0x67B JUMP JUMPDEST DUP4 ADD DUP3 PUSH2 0x767 JUMP JUMPDEST POP POP JUMPDEST POP POP POP JUMP JUMPDEST PUSH0 DUP3 DUP3 SHR SWAP1 POP SWAP3 SWAP2 POP POP JUMP JUMPDEST PUSH0 PUSH2 0x7EA PUSH0 NOT DUP5 PUSH1 0x8 MUL PUSH2 0x7CF JUMP JUMPDEST NOT DUP1 DUP4 AND SWAP2 POP POP SWAP3 SWAP2 POP POP JUMP JUMPDEST PUSH0 PUSH2 0x802 DUP4 DUP4 PUSH2 0x7DB JUMP JUMPDEST SWAP2 POP DUP3 PUSH1 0x2 MUL DUP3 OR SWAP1 POP SWAP3 SWAP2 POP POP JUMP JUMPDEST PUSH2 0x81B DUP3 PUSH2 0x5D5 JUMP JUMPDEST PUSH8 0xFFFFFFFFFFFFFFFF DUP2 GT ISZERO PUSH2 0x834 JUMPI PUSH2 0x833 PUSH2 0x5DF JUMP JUMPDEST JUMPDEST PUSH2 0x83E DUP3 SLOAD PUSH2 0x639 JUMP JUMPDEST PUSH2 0x849 DUP3 DUP3 DUP6 PUSH2 0x789 JUMP JUMPDEST PUSH0 PUSH1 0x20 SWAP1 POP PUSH1 0x1F DUP4 GT PUSH1 0x1 DUP2 EQ PUSH2 0x87A JUMPI PUSH0 DUP5 ISZERO PUSH2 0x868 JUMPI DUP3 DUP8 ADD MLOAD SWAP1 POP JUMPDEST PUSH2 0x872 DUP6 DUP3 PUSH2 0x7F7 JUMP JUMPDEST DUP7 SSTORE POP PUSH2 0x8D9 JUMP JUMPDEST PUSH1 0x1F NOT DUP5 AND PUSH2 0x888 DUP7 PUSH2 0x669 JUMP JUMPDEST PUSH0 JUMPDEST DUP3 DUP2 LT ISZERO PUSH2 0x8AF JUMPI DUP5 DUP10 ADD MLOAD DUP3 SSTORE PUSH1 0x1 DUP3 ADD SWAP2 POP PUSH1 0x20 DUP6 ADD SWAP5 POP PUSH1 0x20 DUP2 ADD SWAP1 POP PUSH2 0x88A JUMP JUMPDEST DUP7 DUP4 LT ISZERO PUSH2 0x8CC JUMPI DUP5 DUP10 ADD MLOAD PUSH2 0x8C8 PUSH1 0x1F DUP10 AND DUP3 PUSH2 0x7DB JUMP JUMPDEST DUP4 SSTORE POP JUMPDEST PUSH1 0x1 PUSH1 0x2 DUP9 MUL ADD DUP9 SSTORE POP POP POP JUMPDEST POP POP POP POP POP POP JUMP JUMPDEST PUSH0 DUP2 SWAP1 POP SWAP2 SWAP1 POP JUMP JUMPDEST PUSH2 0x8F3 DUP2 PUSH2 0x8E1 JUMP JUMPDEST DUP3 MSTORE POP POP JUMP JUMPDEST PUSH2 0x902 DUP2 PUSH2 0x6E7 JUMP JUMPDEST DUP3 MSTORE POP POP JUMP JUMPDEST PUSH0 PUSH20 0xFFFFFFFFFFFFFFFFFFFFFFFFFFFFFFFFFFFFFFFF DUP3 AND SWAP1 POP SWAP2 SWAP1 POP JUMP JUMPDEST PUSH0 PUSH2 0x931 DUP3 PUSH2 0x908 JUMP JUMPDEST SWAP1 POP SWAP2 SWAP1 POP JUMP JUMPDEST PUSH2 0x941 DUP2 PUSH2 0x927 JUMP JUMPDEST DUP3 MSTORE POP POP JUMP JUMPDEST PUSH0 PUSH1 0xA0 DUP3 ADD SWAP1 POP PUSH2 0x95A PUSH0 DUP4 ADD DUP9 PUSH2 0x8EA JUMP JUMPDEST PUSH2 0x967 PUSH1 0x20 DUP4 ADD DUP8 PUSH2 0x8EA JUMP JUMPDEST PUSH2 0x974 PUSH1 0x40 DUP4 ADD DUP7 PUSH2 0x8EA JUMP JUMPDEST PUSH2 0x981 PUSH1 0x60 DUP4 ADD DUP6 PUSH2 0x8F9 JUMP JUMPDEST PUSH2 0x98E PUSH1 0x80 DUP4 ADD DUP5 PUSH2 0x938 JUMP JUMPDEST SWAP7 SWAP6 POP POP POP POP POP POP JUMP JUMPDEST PUSH0 DUP3 DUP3 MSTORE PUSH1 0x20 DUP3 ADD SWAP1 POP SWAP3 SWAP2 POP POP JUMP JUMPDEST DUP3 DUP2 DUP4 MCOPY PUSH0 DUP4 DUP4 ADD MSTORE POP POP POP JUMP JUMPDEST PUSH0 PUSH1 0x1F NOT PUSH1 0x1F DUP4 ADD AND SWAP1 POP SWAP2 SWAP1 POP JUMP JUMPDEST PUSH0 PUSH2 0x9D0 DUP3 PUSH2 0x5D5 JUMP JUMPDEST PUSH2 0x9DA DUP2 DUP6 PUSH2 0x998 JUMP JUMPDEST SWAP4 POP PUSH2 0x9EA DUP2 DUP6 PUSH1 0x20 DUP7 ADD PUSH2 0x9A8 JUMP JUMPDEST PUSH2 0x9F3 DUP2 PUSH2 0x9B6 JUMP JUMPDEST DUP5 ADD SWAP2 POP POP SWAP3 SWAP2 POP POP JUMP JUMPDEST PUSH0 PUSH1 0x20 DUP3 ADD SWAP1 POP DUP2 DUP2 SUB PUSH0 DUP4 ADD MSTORE PUSH2 0xA16 DUP2 DUP5 PUSH2 0x9C6 JUMP JUMPDEST SWAP1 POP SWAP3 SWAP2 POP POP JUMP JUMPDEST PUSH0 DUP2 MLOAD SWAP1 POP SWAP2 SWAP1 POP JUMP JUMPDEST PUSH0 DUP2 SWAP1 POP PUSH1 0x20 DUP3 ADD SWAP1 POP SWAP2 SWAP1 POP JUMP JUMPDEST PUSH0 PUSH2 0xA42 DUP3 MLOAD PUSH2 0x8E1 JUMP JUMPDEST DUP1 SWAP2 POP POP SWAP2 SWAP1 POP JUMP JUMPDEST PUSH0 PUSH2 0xA55 DUP3 PUSH2 0xA1E JUMP JUMPDEST DUP3 PUSH2 0xA5F DUP5 PUSH2 0xA28 JUMP JUMPDEST SWAP1 POP PUSH2 0xA6A DUP2 PUSH2 0xA37 JUMP JUMPDEST SWAP3 POP PUSH1 0x20 DUP3 LT ISZERO PUSH2 0xAAA JUMPI PUSH2 0xAA5 PUSH32 0xFFFFFFFFFFFFFFFFFFFFFFFFFFFFFFFFFFFFFFFFFFFFFFFFFFFFFFFFFFFFFFFF DUP4 PUSH1 0x20 SUB PUSH1 0x8 MUL PUSH2 0x68A JUMP JUMPDEST DUP4 AND SWAP3 POP JUMPDEST POP POP SWAP2 SWAP1 POP JUMP JUMPDEST PUSH1 0x80 MLOAD PUSH1 0xA0 MLOAD PUSH1 0xC0 MLOAD PUSH1 0xE0 MLOAD PUSH2 0x100 MLOAD PUSH2 0x120 MLOAD PUSH2 0x140 MLOAD PUSH2 0x3400 PUSH2 0xB02 PUSH0 CODECOPY PUSH0 PUSH2 0x1698 ADD MSTORE PUSH0 PUSH2 0x165D ADD MSTORE PUSH0 PUSH2 0x1BC2 ADD MSTORE PUSH0 PUSH2 0x1BA1 ADD MSTORE PUSH0 PUSH2 0x12E7 ADD MSTORE PUSH0 PUSH2 0x133D ADD MSTORE PUSH0 PUSH2 0x1366 ADD MSTORE PUSH2 0x3400 PUSH0 RETURN INVALID PUSH1 0x80 PUSH1 0x40 MSTORE CALLVALUE DUP1 ISZERO PUSH2 0xF JUMPI PUSH0 PUSH0 REVERT JUMPDEST POP PUSH1 0x4 CALLDATASIZE LT PUSH2 0x204 JUMPI PUSH0 CALLDATALOAD PUSH1 0xE0 SHR DUP1 PUSH4 0x8456CB59 GT PUSH2 0x118 JUMPI DUP1 PUSH4 0xBAC498E1 GT PUSH2 0xAB JUMPI DUP1 PUSH4 0xD547741F GT PUSH2 0x7A JUMPI DUP1 PUSH4 0xD547741F EQ PUSH2 0x606 JUMPI DUP1 PUSH4 0xDD60BE22 EQ PUSH2 0x622 JUMPI DUP1 PUSH4 0xDD62ED3E EQ PUSH2 0x63E JUMPI DUP1 PUSH4 0xE58306F9 EQ PUSH2 0x66E JUMPI DUP1 PUSH4 0xE63AB1E9 EQ PUSH2 0x68A JUMPI PUSH2 0x204 JUMP JUMPDEST DUP1 PUSH4 0xBAC498E1 EQ PUSH2 0x57E JUMPI DUP1 PUSH4 0xCA15C873 EQ PUSH2 0x59C JUMPI DUP1 PUSH4 0xD505ACCF EQ PUSH2 0x5CC JUMPI DUP1 PUSH4 0xD5391393 EQ PUSH2 0x5E8 JUMPI PUSH2 0x204 JUMP JUMPDEST DUP1 PUSH4 0x95D89B41 GT PUSH2 0xE7 JUMPI DUP1 PUSH4 0x95D89B41 EQ PUSH2 0x4E2 JUMPI DUP1 PUSH4 0xA217FDDF EQ PUSH2 0x500 JUMPI DUP1 PUSH4 0xA3246AD3 EQ PUSH2 0x51E JUMPI DUP1 PUSH4 0xA9059CBB EQ PUSH2 0x54E JUMPI PUSH2 0x204 JUMP JUMPDEST DUP1 PUSH4 0x8456CB59 EQ PUSH2 0x454 JUMPI DUP1 PUSH4 0x84B0196E EQ PUSH2 0x45E JUMPI DUP1 PUSH4 0x9010D07C EQ PUSH2 0x482 JUMPI DUP1 PUSH4 0x91D14854 EQ PUSH2 0x4B2 JUMPI PUSH2 0x204 JUMP JUMPDEST DUP1 PUSH4 0x3644E515 GT PUSH2 0x19B JUMPI DUP1 PUSH4 0x42966C68 GT PUSH2 0x16A JUMPI DUP1 PUSH4 0x42966C68 EQ PUSH2 0x39E JUMPI DUP1 PUSH4 0x5C975ABB EQ PUSH2 0x3BA JUMPI DUP1 PUSH4 0x70A08231 EQ PUSH2 0x3D8 JUMPI DUP1 PUSH4 0x79CC6790 EQ PUSH2 0x408 JUMPI DUP1 PUSH4 0x7ECEBE00 EQ PUSH2 0x424 JUMPI PUSH2 0x204 JUMP JUMPDEST DUP1 PUSH4 0x3644E515 EQ PUSH2 0x33E JUMPI DUP1 PUSH4 0x36568ABE EQ PUSH2 0x35C JUMPI DUP1 PUSH4 0x3F4BA83A EQ PUSH2 0x378 JUMPI DUP1 PUSH4 0x40C10F19 EQ PUSH2 0x382 JUMPI PUSH2 0x204 JUMP JUMPDEST DUP1 PUSH4 0x23B872DD GT PUSH2 0x1D7 JUMPI DUP1 PUSH4 0x23B872DD EQ PUSH2 0x2A4 JUMPI DUP1 PUSH4 0x248A9CA3 EQ PUSH2 0x2D4 JUMPI DUP1 PUSH4 0x2F2FF15D EQ PUSH2 0x304 JUMPI DUP1 PUSH4 0x313CE567 EQ PUSH2 0x320 JUMPI PUSH2 0x204 JUMP JUMPDEST DUP1 PUSH4 0x1FFC9A7 EQ PUSH2 0x208 JUMPI DUP1 PUSH4 0x6FDDE03 EQ PUSH2 0x238 JUMPI DUP1 PUSH4 0x95EA7B3 EQ PUSH2 0x256 JUMPI DUP1 PUSH4 0x18160DDD EQ PUSH2 0x286 JUMPI JUMPDEST PUSH0 PUSH0 REVERT JUMPDEST PUSH2 0x222 PUSH1 0x4 DUP1 CALLDATASIZE SUB DUP2 ADD SWAP1 PUSH2 0x21D SWAP2 SWAP1 PUSH2 0x263E JUMP JUMPDEST PUSH2 0x6A8 JUMP JUMPDEST PUSH1 0x40 MLOAD PUSH2 0x22F SWAP2 SWAP1 PUSH2 0x2683 JUMP JUMPDEST PUSH1 0x40 MLOAD DUP1 SWAP2 SUB SWAP1 RETURN JUMPDEST PUSH2 0x240 PUSH2 0x721 JUMP JUMPDEST PUSH1 0x40 MLOAD PUSH2 0x24D SWAP2 SWAP1 PUSH2 0x270C JUMP JUMPDEST PUSH1 0x40 MLOAD DUP1 SWAP2 SUB SWAP1 RETURN JUMPDEST PUSH2 0x270 PUSH1 0x4 DUP1 CALLDATASIZE SUB DUP2 ADD SWAP1 PUSH2 0x26B SWAP2 SWAP1 PUSH2 0x27B9 JUMP JUMPDEST PUSH2 0x7B1 JUMP JUMPDEST PUSH1 0x40 MLOAD PUSH2 0x27D SWAP2 SWAP1 PUSH2 0x2683 JUMP JUMPDEST PUSH1 0x40 MLOAD DUP1 SWAP2 SUB SWAP1 RETURN JUMPDEST PUSH2 0x28E PUSH2 0x7D3 JUMP JUMPDEST PUSH1 0x40 MLOAD PUSH2 0x29B SWAP2 SWAP1 PUSH2 0x2806 JUMP JUMPDEST PUSH1 0x40 MLOAD DUP1 SWAP2 SUB SWAP1 RETURN JUMPDEST PUSH2 0x2BE PUSH1 0x4 DUP1 CALLDATASIZE SUB DUP2 ADD SWAP1 PUSH2 0x2B9 SWAP2 SWAP1 PUSH2 0x281F JUMP JUMPDEST PUSH2 0x7DC JUMP JUMPDEST PUSH1 0x40 MLOAD PUSH2 0x2CB SWAP2 SWAP1 PUSH2 0x2683 JUMP JUMPDEST PUSH1 0x40 MLOAD DUP1 SWAP2 SUB SWAP1 RETURN JUMPDEST PUSH2 0x2EE PUSH1 0x4 DUP1 CALLDATASIZE SUB DUP2 ADD SWAP1 PUSH2 0x2E9 SWAP2 SWAP1 PUSH2 0x28A2 JUMP JUMPDEST PUSH2 0x80A JUMP JUMPDEST PUSH1 0x40 MLOAD PUSH2 0x2FB SWAP2 SWAP1 PUSH2 0x28DC JUMP JUMPDEST PUSH1 0x40 MLOAD DUP1 SWAP2 SUB SWAP1 RETURN JUMPDEST PUSH2 0x31E PUSH1 0x4 DUP1 CALLDATASIZE SUB DUP2 ADD SWAP1 PUSH2 0x319 SWAP2 SWAP1 PUSH2 0x28F5 JUMP JUMPDEST PUSH2 0x826 JUMP JUMPDEST STOP JUMPDEST PUSH2 0x328 PUSH2 0x848 JUMP JUMPDEST PUSH1 0x40 MLOAD PUSH2 0x335 SWAP2 SWAP1 PUSH2 0x294E JUMP JUMPDEST PUSH1 0x40 MLOAD DUP1 SWAP2 SUB SWAP1 RETURN JUMPDEST PUSH2 0x346 PUSH2 0x850 JUMP JUMPDEST PUSH1 0x40 MLOAD PUSH2 0x353 SWAP2 SWAP1 PUSH2 0x28DC JUMP JUMPDEST PUSH1 0x40 MLOAD DUP1 SWAP2 SUB SWAP1 RETURN JUMPDEST PUSH2 0x376 PUSH1 0x4 DUP1 CALLDATASIZE SUB DUP2 ADD SWAP1 PUSH2 0x371 SWAP2 SWAP1 PUSH2 0x28F5 JUMP JUMPDEST PUSH2 0x85E JUMP JUMPDEST STOP JUMPDEST PUSH2 0x380 PUSH2 0x8D9 JUMP JUMPDEST STOP JUMPDEST PUSH2 0x39C PUSH1 0x4 DUP1 CALLDATASIZE SUB DUP2 ADD SWAP1 PUSH2 0x397 SWAP2 SWAP1 PUSH2 0x27B9 JUMP JUMPDEST PUSH2 0x953 JUMP JUMPDEST STOP JUMPDEST PUSH2 0x3B8 PUSH1 0x4 DUP1 CALLDATASIZE SUB DUP2 ADD SWAP1 PUSH2 0x3B3 SWAP2 SWAP1 PUSH2 0x2967 JUMP JUMPDEST PUSH2 0x9DB JUMP JUMPDEST STOP JUMPDEST PUSH2 0x3C2 PUSH2 0x9EF JUMP JUMPDEST PUSH1 0x40 MLOAD PUSH2 0x3CF SWAP2 SWAP1 PUSH2 0x2683 JUMP JUMPDEST PUSH1 0x40 MLOAD DUP1 SWAP2 SUB SWAP1 RETURN JUMPDEST PUSH2 0x3F2 PUSH1 0x4 DUP1 CALLDATASIZE SUB DUP2 ADD SWAP1 PUSH2 0x3ED SWAP2 SWAP1 PUSH2 0x2992 JUMP JUMPDEST PUSH2 0xA04 JUMP JUMPDEST PUSH1 0x40 MLOAD PUSH2 0x3FF SWAP2 SWAP1 PUSH2 0x2806 JUMP JUMPDEST PUSH1 0x40 MLOAD DUP1 SWAP2 SUB SWAP1 RETURN JUMPDEST PUSH2 0x422 PUSH1 0x4 DUP1 CALLDATASIZE SUB DUP2 ADD SWAP1 PUSH2 0x41D SWAP2 SWAP1 PUSH2 0x27B9 JUMP JUMPDEST PUSH2 0xA4A JUMP JUMPDEST STOP JUMPDEST PUSH2 0x43E PUSH1 0x4 DUP1 CALLDATASIZE SUB DUP2 ADD SWAP1 PUSH2 0x439 SWAP2 SWAP1 PUSH2 0x2992 JUMP JUMPDEST PUSH2 0xA6A JUMP JUMPDEST PUSH1 0x40 MLOAD PUSH2 0x44B SWAP2 SWAP1 PUSH2 0x2806 JUMP JUMPDEST PUSH1 0x40 MLOAD DUP1 SWAP2 SUB SWAP1 RETURN JUMPDEST PUSH2 0x45C PUSH2 0xA7B JUMP JUMPDEST STOP JUMPDEST PUSH2 0x466 PUSH2 0xAF5 JUMP JUMPDEST PUSH1 0x40 MLOAD PUSH2 0x479 SWAP8 SWAP7 SWAP6 SWAP5 SWAP4 SWAP3 SWAP2 SWAP1 PUSH2 0x2ABD JUMP JUMPDEST PUSH1 0x40 MLOAD DUP1 SWAP2 SUB SWAP1 RETURN JUMPDEST PUSH2 0x49C PUSH1 0x4 DUP1 CALLDATASIZE SUB DUP2 ADD SWAP1 PUSH2 0x497 SWAP2 SWAP1 PUSH2 0x2B3F JUMP JUMPDEST PUSH2 0xB9A JUMP JUMPDEST PUSH1 0x40 MLOAD PUSH2 0x4A9 SWAP2 SWAP1 PUSH2 0x2B7D JUMP JUMPDEST PUSH1 0x40 MLOAD DUP1 SWAP2 SUB SWAP1 RETURN JUMPDEST PUSH2 0x4CC PUSH1 0x4 DUP1 CALLDATASIZE SUB DUP2 ADD SWAP1 PUSH2 0x4C7 SWAP2 SWAP1 PUSH2 0x28F5 JUMP JUMPDEST PUSH2 0xBC6 JUMP JUMPDEST PUSH1 0x40 MLOAD PUSH2 0x4D9 SWAP2 SWAP1 PUSH2 0x2683 JUMP JUMPDEST PUSH1 0x40 MLOAD DUP1 SWAP2 SUB SWAP1 RETURN JUMPDEST PUSH2 0x4EA PUSH2 0xC29 JUMP JUMPDEST PUSH1 0x40 MLOAD PUSH2 0x4F7 SWAP2 SWAP1 PUSH2 0x270C JUMP JUMPDEST PUSH1 0x40 MLOAD DUP1 SWAP2 SUB SWAP1 RETURN JUMPDEST PUSH2 0x508 PUSH2 0xCB9 JUMP JUMPDEST PUSH1 0x40 MLOAD PUSH2 0x515 SWAP2 SWAP1 PUSH2 0x28DC JUMP JUMPDEST PUSH1 0x40 MLOAD DUP1 SWAP2 SUB SWAP1 RETURN JUMPDEST PUSH2 0x538 PUSH1 0x4 DUP1 CALLDATASIZE SUB DUP2 ADD SWAP1 PUSH2 0x533 SWAP2 SWAP1 PUSH2 0x28A2 JUMP JUMPDEST PUSH2 0xCBF JUMP JUMPDEST PUSH1 0x40 MLOAD PUSH2 0x545 SWAP2 SWAP1 PUSH2 0x2C4D JUMP JUMPDEST PUSH1 0x40 MLOAD DUP1 SWAP2 SUB SWAP1 RETURN JUMPDEST PUSH2 0x568 PUSH1 0x4 DUP1 CALLDATASIZE SUB DUP2 ADD SWAP1 PUSH2 0x563 SWAP2 SWAP1 PUSH2 0x27B9 JUMP JUMPDEST PUSH2 0xCE1 JUMP JUMPDEST PUSH1 0x40 MLOAD PUSH2 0x575 SWAP2 SWAP1 PUSH2 0x2683 JUMP JUMPDEST PUSH1 0x40 MLOAD DUP1 SWAP2 SUB SWAP1 RETURN JUMPDEST PUSH2 0x586 PUSH2 0xD03 JUMP JUMPDEST PUSH1 0x40 MLOAD PUSH2 0x593 SWAP2 SWAP1 PUSH2 0x2806 JUMP JUMPDEST PUSH1 0x40 MLOAD DUP1 SWAP2 SUB SWAP1 RETURN JUMPDEST PUSH2 0x5B6 PUSH1 0x4 DUP1 CALLDATASIZE SUB DUP2 ADD SWAP1 PUSH2 0x5B1 SWAP2 SWAP1 PUSH2 0x28A2 JUMP JUMPDEST PUSH2 0xD11 JUMP JUMPDEST PUSH1 0x40 MLOAD PUSH2 0x5C3 SWAP2 SWAP1 PUSH2 0x2806 JUMP JUMPDEST PUSH1 0x40 MLOAD DUP1 SWAP2 SUB SWAP1 RETURN JUMPDEST PUSH2 0x5E6 PUSH1 0x4 DUP1 CALLDATASIZE SUB DUP2 ADD SWAP1 PUSH2 0x5E1 SWAP2 SWAP1 PUSH2 0x2C97 JUMP JUMPDEST PUSH2 0xD32 JUMP JUMPDEST STOP JUMPDEST PUSH2 0x5F0 PUSH2 0xE77 JUMP JUMPDEST PUSH1 0x40 MLOAD PUSH2 0x5FD SWAP2 SWAP1 PUSH2 0x28DC JUMP JUMPDEST PUSH1 0x40 MLOAD DUP1 SWAP2 SUB SWAP1 RETURN JUMPDEST PUSH2 0x620 PUSH1 0x4 DUP1 CALLDATASIZE SUB DUP2 ADD SWAP1 PUSH2 0x61B SWAP2 SWAP1 PUSH2 0x28F5 JUMP JUMPDEST PUSH2 0xE9B JUMP JUMPDEST STOP JUMPDEST PUSH2 0x63C PUSH1 0x4 DUP1 CALLDATASIZE SUB DUP2 ADD SWAP1 PUSH2 0x637 SWAP2 SWAP1 PUSH2 0x27B9 JUMP JUMPDEST PUSH2 0xEBD JUMP JUMPDEST STOP JUMPDEST PUSH2 0x658 PUSH1 0x4 DUP1 CALLDATASIZE SUB DUP2 ADD SWAP1 PUSH2 0x653 SWAP2 SWAP1 PUSH2 0x2D34 JUMP JUMPDEST PUSH2 0xF68 JUMP JUMPDEST PUSH1 0x40 MLOAD PUSH2 0x665 SWAP2 SWAP1 PUSH2 0x2806 JUMP JUMPDEST PUSH1 0x40 MLOAD DUP1 SWAP2 SUB SWAP1 RETURN JUMPDEST PUSH2 0x688 PUSH1 0x4 DUP1 CALLDATASIZE SUB DUP2 ADD SWAP1 PUSH2 0x683 SWAP2 SWAP1 PUSH2 0x27B9 JUMP JUMPDEST PUSH2 0xFEA JUMP JUMPDEST STOP JUMPDEST PUSH2 0x692 PUSH2 0x1054 JUMP JUMPDEST PUSH1 0x40 MLOAD PUSH2 0x69F SWAP2 SWAP1 PUSH2 0x28DC JUMP JUMPDEST PUSH1 0x40 MLOAD DUP1 SWAP2 SUB SWAP1 RETURN JUMPDEST PUSH0 PUSH32 0x5A05180F00000000000000000000000000000000000000000000000000000000 PUSH28 0xFFFFFFFFFFFFFFFFFFFFFFFFFFFFFFFFFFFFFFFFFFFFFFFFFFFFFFFF NOT AND DUP3 PUSH28 0xFFFFFFFFFFFFFFFFFFFFFFFFFFFFFFFFFFFFFFFFFFFFFFFFFFFFFFFF NOT AND EQ DUP1 PUSH2 0x71A JUMPI POP PUSH2 0x719 DUP3 PUSH2 0x1078 JUMP JUMPDEST JUMPDEST SWAP1 POP SWAP2 SWAP1 POP JUMP JUMPDEST PUSH1 0x60 PUSH1 0x5 DUP1 SLOAD PUSH2 0x730 SWAP1 PUSH2 0x2D9F JUMP JUMPDEST DUP1 PUSH1 0x1F ADD PUSH1 0x20 DUP1 SWAP2 DIV MUL PUSH1 0x20 ADD PUSH1 0x40 MLOAD SWAP1 DUP2 ADD PUSH1 0x40 MSTORE DUP1 SWAP3 SWAP2 SWAP1 DUP2 DUP2 MSTORE PUSH1 0x20 ADD DUP3 DUP1 SLOAD PUSH2 0x75C SWAP1 PUSH2 0x2D9F JUMP JUMPDEST DUP1 ISZERO PUSH2 0x7A7 JUMPI DUP1 PUSH1 0x1F LT PUSH2 0x77E JUMPI PUSH2 0x100 DUP1 DUP4 SLOAD DIV MUL DUP4 MSTORE SWAP2 PUSH1 0x20 ADD SWAP2 PUSH2 0x7A7 JUMP JUMPDEST DUP3 ADD SWAP2 SWAP1 PUSH0 MSTORE PUSH1 0x20 PUSH0 KECCAK256 SWAP1 JUMPDEST DUP2 SLOAD DUP2 MSTORE SWAP1 PUSH1 0x1 ADD SWAP1 PUSH1 0x20 ADD DUP1 DUP4 GT PUSH2 0x78A JUMPI DUP3 SWAP1 SUB PUSH1 0x1F AND DUP3 ADD SWAP2 JUMPDEST POP POP POP POP POP SWAP1 POP SWAP1 JUMP JUMPDEST PUSH0 PUSH0 PUSH2 0x7BB PUSH2 0x10F1 JUMP JUMPDEST SWAP1 POP PUSH2 0x7C8 DUP2 DUP6 DUP6 PUSH2 0x10F8 JUMP JUMPDEST PUSH1 0x1 SWAP2 POP POP SWAP3 SWAP2 POP POP JUMP JUMPDEST PUSH0 PUSH1 0x4 SLOAD SWAP1 POP SWAP1 JUMP JUMPDEST PUSH0 PUSH0 PUSH2 0x7E6 PUSH2 0x10F1 JUMP JUMPDEST SWAP1 POP PUSH2 0x7F3 DUP6 DUP3 DUP6 PUSH2 0x110A JUMP JUMPDEST PUSH2 0x7FE DUP6 DUP6 DUP6 PUSH2 0x119D JUMP JUMPDEST PUSH1 0x1 SWAP2 POP POP SWAP4 SWAP3 POP POP POP JUMP JUMPDEST PUSH0 PUSH0 PUSH0 DUP4 DUP2 MSTORE PUSH1 0x20 ADD SWAP1 DUP2 MSTORE PUSH1 0x20 ADD PUSH0 KECCAK256 PUSH1 0x1 ADD SLOAD SWAP1 POP SWAP2 SWAP1 POP JUMP JUMPDEST PUSH2 0x82F DUP3 PUSH2 0x80A JUMP JUMPDEST PUSH2 0x838 DUP2 PUSH2 0x128D JUMP JUMPDEST PUSH2 0x842 DUP4 DUP4 PUSH2 0x12A1 JUMP JUMPDEST POP POP POP POP JUMP JUMPDEST PUSH0 PUSH1 0x12 SWAP1 POP SWAP1 JUMP JUMPDEST PUSH0 PUSH2 0x859 PUSH2 0x12E4 JUMP JUMPDEST SWAP1 POP SWAP1 JUMP JUMPDEST PUSH2 0x866 PUSH2 0x10F1 JUMP JUMPDEST PUSH20 0xFFFFFFFFFFFFFFFFFFFFFFFFFFFFFFFFFFFFFFFF AND DUP2 PUSH20 0xFFFFFFFFFFFFFFFFFFFFFFFFFFFFFFFFFFFFFFFF AND EQ PUSH2 0x8CA JUMPI PUSH1 0x40 MLOAD PUSH32 0x6697B23200000000000000000000000000000000000000000000000000000000 DUP2 MSTORE PUSH1 0x4 ADD PUSH1 0x40 MLOAD DUP1 SWAP2 SUB SWAP1 REVERT JUMPDEST PUSH2 0x8D4 DUP3 DUP3 PUSH2 0x139A JUMP JUMPDEST POP POP POP JUMP JUMPDEST PUSH2 0x90A PUSH32 0x65D7A28E3265B37A6474929F336521B332C1681B933F6CB9F3376673440D862A PUSH2 0x905 PUSH2 0x10F1 JUMP JUMPDEST PUSH2 0xBC6 JUMP JUMPDEST PUSH2 0x949 JUMPI PUSH1 0x40 MLOAD PUSH32 0x8C379A000000000000000000000000000000000000000000000000000000000 DUP2 MSTORE PUSH1 0x4 ADD PUSH2 0x940 SWAP1 PUSH2 0x2E3F JUMP JUMPDEST PUSH1 0x40 MLOAD DUP1 SWAP2 SUB SWAP1 REVERT JUMPDEST PUSH2 0x951 PUSH2 0x13DD JUMP JUMPDEST JUMP JUMPDEST PUSH2 0x984 PUSH32 0x9F2DF0FED2C77648DE5860A4CC508CD0818C85B8B8A1AB4CEEEF8D981C8956A6 PUSH2 0x97F PUSH2 0x10F1 JUMP JUMPDEST PUSH2 0xBC6 JUMP JUMPDEST PUSH2 0x9C3 JUMPI PUSH1 0x40 MLOAD PUSH32 0x8C379A000000000000000000000000000000000000000000000000000000000 DUP2 MSTORE PUSH1 0x4 ADD PUSH2 0x9BA SWAP1 PUSH2 0x2ECD JUMP JUMPDEST PUSH1 0x40 MLOAD DUP1 SWAP2 SUB SWAP1 REVERT JUMPDEST PUSH2 0x9CD DUP3 DUP3 PUSH2 0x143E JUMP JUMPDEST PUSH2 0x9D7 DUP3 DUP3 PUSH2 0x14BD JUMP JUMPDEST POP POP JUMP JUMPDEST PUSH2 0x9EC PUSH2 0x9E6 PUSH2 0x10F1 JUMP JUMPDEST DUP3 PUSH2 0x152D JUMP JUMPDEST POP JUMP JUMPDEST PUSH0 PUSH1 0xA PUSH0 SWAP1 SLOAD SWAP1 PUSH2 0x100 EXP SWAP1 DIV PUSH1 0xFF AND SWAP1 POP SWAP1 JUMP JUMPDEST PUSH0 PUSH1 0x2 PUSH0 DUP4 PUSH20 0xFFFFFFFFFFFFFFFFFFFFFFFFFFFFFFFFFFFFFFFF AND PUSH20 0xFFFFFFFFFFFFFFFFFFFFFFFFFFFFFFFFFFFFFFFF AND DUP2 MSTORE PUSH1 0x20 ADD SWAP1 DUP2 MSTORE PUSH1 0x20 ADD PUSH0 KECCAK256 SLOAD SWAP1 POP SWAP2 SWAP1 POP JUMP JUMPDEST PUSH2 0xA5C DUP3 PUSH2 0xA56 PUSH2 0x10F1 JUMP JUMPDEST DUP4 PUSH2 0x110A JUMP JUMPDEST PUSH2 0xA66 DUP3 DUP3 PUSH2 0x152D JUMP JUMPDEST POP POP JUMP JUMPDEST PUSH0 PUSH2 0xA74 DUP3 PUSH2 0x15AC JUMP JUMPDEST SWAP1 POP SWAP2 SWAP1 POP JUMP JUMPDEST PUSH2 0xAAC PUSH32 0x65D7A28E3265B37A6474929F336521B332C1681B933F6CB9F3376673440D862A PUSH2 0xAA7 PUSH2 0x10F1 JUMP JUMPDEST PUSH2 0xBC6 JUMP JUMPDEST PUSH2 0xAEB JUMPI PUSH1 0x40 MLOAD PUSH32 0x8C379A000000000000000000000000000000000000000000000000000000000 DUP2 MSTORE PUSH1 0x4 ADD PUSH2 0xAE2 SWAP1 PUSH2 0x2F5B JUMP JUMPDEST PUSH1 0x40 MLOAD DUP1 SWAP2 SUB SWAP1 REVERT JUMPDEST PUSH2 0xAF3 PUSH2 0x15F2 JUMP JUMPDEST JUMP JUMPDEST PUSH0 PUSH1 0x60 DUP1 PUSH0 PUSH0 PUSH0 PUSH1 0x60 PUSH2 0xB06 PUSH2 0x1654 JUMP JUMPDEST PUSH2 0xB0E PUSH2 0x168F JUMP JUMPDEST CHAINID ADDRESS PUSH0 PUSH0 SHL PUSH0 PUSH8 0xFFFFFFFFFFFFFFFF DUP2 GT ISZERO PUSH2 0xB2D JUMPI PUSH2 0xB2C PUSH2 0x2F79 JUMP JUMPDEST JUMPDEST PUSH1 0x40 MLOAD SWAP1 DUP1 DUP3 MSTORE DUP1 PUSH1 0x20 MUL PUSH1 0x20 ADD DUP3 ADD PUSH1 0x40 MSTORE DUP1 ISZERO PUSH2 0xB5B JUMPI DUP2 PUSH1 0x20 ADD PUSH1 0x20 DUP3 MUL DUP1 CALLDATASIZE DUP4 CALLDATACOPY DUP1 DUP3 ADD SWAP2 POP POP SWAP1 POP JUMPDEST POP PUSH32 0xF00000000000000000000000000000000000000000000000000000000000000 SWAP6 SWAP5 SWAP4 SWAP3 SWAP2 SWAP1 SWAP7 POP SWAP7 POP SWAP7 POP SWAP7 POP SWAP7 POP SWAP7 POP SWAP7 POP SWAP1 SWAP2 SWAP3 SWAP4 SWAP5 SWAP6 SWAP7 JUMP JUMPDEST PUSH0 PUSH2 0xBBE DUP3 PUSH1 0x1 PUSH0 DUP7 DUP2 MSTORE PUSH1 0x20 ADD SWAP1 DUP2 MSTORE PUSH1 0x20 ADD PUSH0 KECCAK256 PUSH2 0x16CA SWAP1 SWAP2 SWAP1 PUSH4 0xFFFFFFFF AND JUMP JUMPDEST SWAP1 POP SWAP3 SWAP2 POP POP JUMP JUMPDEST PUSH0 PUSH0 PUSH0 DUP5 DUP2 MSTORE PUSH1 0x20 ADD SWAP1 DUP2 MSTORE PUSH1 0x20 ADD PUSH0 KECCAK256 PUSH0 ADD PUSH0 DUP4 PUSH20 0xFFFFFFFFFFFFFFFFFFFFFFFFFFFFFFFFFFFFFFFF AND PUSH20 0xFFFFFFFFFFFFFFFFFFFFFFFFFFFFFFFFFFFFFFFF AND DUP2 MSTORE PUSH1 0x20 ADD SWAP1 DUP2 MSTORE PUSH1 0x20 ADD PUSH0 KECCAK256 PUSH0 SWAP1 SLOAD SWAP1 PUSH2 0x100 EXP SWAP1 DIV PUSH1 0xFF AND SWAP1 POP SWAP3 SWAP2 POP POP JUMP JUMPDEST PUSH1 0x60 PUSH1 0x6 DUP1 SLOAD PUSH2 0xC38 SWAP1 PUSH2 0x2D9F JUMP JUMPDEST DUP1 PUSH1 0x1F ADD PUSH1 0x20 DUP1 SWAP2 DIV MUL PUSH1 0x20 ADD PUSH1 0x40 MLOAD SWAP1 DUP2 ADD PUSH1 0x40 MSTORE DUP1 SWAP3 SWAP2 SWAP1 DUP2 DUP2 MSTORE PUSH1 0x20 ADD DUP3 DUP1 SLOAD PUSH2 0xC64 SWAP1 PUSH2 0x2D9F JUMP JUMPDEST DUP1 ISZERO PUSH2 0xCAF JUMPI DUP1 PUSH1 0x1F LT PUSH2 0xC86 JUMPI PUSH2 0x100 DUP1 DUP4 SLOAD DIV MUL DUP4 MSTORE SWAP2 PUSH1 0x20 ADD SWAP2 PUSH2 0xCAF JUMP JUMPDEST DUP3 ADD SWAP2 SWAP1 PUSH0 MSTORE PUSH1 0x20 PUSH0 KECCAK256 SWAP1 JUMPDEST DUP2 SLOAD DUP2 MSTORE SWAP1 PUSH1 0x1 ADD SWAP1 PUSH1 0x20 ADD DUP1 DUP4 GT PUSH2 0xC92 JUMPI DUP3 SWAP1 SUB PUSH1 0x1F AND DUP3 ADD SWAP2 JUMPDEST POP POP POP POP POP SWAP1 POP SWAP1 JUMP JUMPDEST PUSH0 PUSH0 SHL DUP2 JUMP JUMPDEST PUSH1 0x60 PUSH2 0xCDA PUSH1 0x1 PUSH0 DUP5 DUP2 MSTORE PUSH1 0x20 ADD SWAP1 DUP2 MSTORE PUSH1 0x20 ADD PUSH0 KECCAK256 PUSH2 0x16E1 JUMP JUMPDEST SWAP1 POP SWAP2 SWAP1 POP JUMP JUMPDEST PUSH0 PUSH0 PUSH2 0xCEB PUSH2 0x10F1 JUMP JUMPDEST SWAP1 POP PUSH2 0xCF8 DUP2 DUP6 DUP6 PUSH2 0x119D JUMP JUMPDEST PUSH1 0x1 SWAP2 POP POP SWAP3 SWAP2 POP POP JUMP JUMPDEST PUSH0 PUSH2 0xD0C PUSH2 0x7D3 JUMP JUMPDEST SWAP1 POP SWAP1 JUMP JUMPDEST PUSH0 PUSH2 0xD2B PUSH1 0x1 PUSH0 DUP5 DUP2 MSTORE PUSH1 0x20 ADD SWAP1 DUP2 MSTORE PUSH1 0x20 ADD PUSH0 KECCAK256 PUSH2 0x1700 JUMP JUMPDEST SWAP1 POP SWAP2 SWAP1 POP JUMP JUMPDEST DUP4 TIMESTAMP GT ISZERO PUSH2 0xD77 JUMPI DUP4 PUSH1 0x40 MLOAD PUSH32 0x6279130200000000000000000000000000000000000000000000000000000000 DUP2 MSTORE PUSH1 0x4 ADD PUSH2 0xD6E SWAP2 SWAP1 PUSH2 0x2806 JUMP JUMPDEST PUSH1 0x40 MLOAD DUP1 SWAP2 SUB SWAP1 REVERT JUMPDEST PUSH0 PUSH32 0x6E71EDAE12B1B97F4D1F60370FEF10105FA2FAAE0126114A169C64845D6126C9 DUP9 DUP9 DUP9 PUSH2 0xDA5 DUP13 PUSH2 0x1713 JUMP JUMPDEST DUP10 PUSH1 0x40 MLOAD PUSH1 0x20 ADD PUSH2 0xDBB SWAP7 SWAP6 SWAP5 SWAP4 SWAP3 SWAP2 SWAP1 PUSH2 0x2FA6 JUMP JUMPDEST PUSH1 0x40 MLOAD PUSH1 0x20 DUP2 DUP4 SUB SUB DUP2 MSTORE SWAP1 PUSH1 0x40 MSTORE DUP1 MLOAD SWAP1 PUSH1 0x20 ADD KECCAK256 SWAP1 POP PUSH0 PUSH2 0xDDD DUP3 PUSH2 0x1766 JUMP JUMPDEST SWAP1 POP PUSH0 PUSH2 0xDEC DUP3 DUP8 DUP8 DUP8 PUSH2 0x177F JUMP JUMPDEST SWAP1 POP DUP10 PUSH20 0xFFFFFFFFFFFFFFFFFFFFFFFFFFFFFFFFFFFFFFFF AND DUP2 PUSH20 0xFFFFFFFFFFFFFFFFFFFFFFFFFFFFFFFFFFFFFFFF AND EQ PUSH2 0xE60 JUMPI DUP1 DUP11 PUSH1 0x40 MLOAD PUSH32 0x4B800E4600000000000000000000000000000000000000000000000000000000 DUP2 MSTORE PUSH1 0x4 ADD PUSH2 0xE57 SWAP3 SWAP2 SWAP1 PUSH2 0x3005 JUMP JUMPDEST PUSH1 0x40 MLOAD DUP1 SWAP2 SUB SWAP1 REVERT JUMPDEST PUSH2 0xE6B DUP11 DUP11 DUP11 PUSH2 0x10F8 JUMP JUMPDEST POP POP POP POP POP POP POP POP POP POP JUMP JUMPDEST PUSH32 0x9F2DF0FED2C77648DE5860A4CC508CD0818C85B8B8A1AB4CEEEF8D981C8956A6 DUP2 JUMP JUMPDEST PUSH2 0xEA4 DUP3 PUSH2 0x80A JUMP JUMPDEST PUSH2 0xEAD DUP2 PUSH2 0x128D JUMP JUMPDEST PUSH2 0xEB7 DUP4 DUP4 PUSH2 0x139A JUMP JUMPDEST POP POP POP POP JUMP JUMPDEST PUSH2 0xEEE PUSH32 0x9F2DF0FED2C77648DE5860A4CC508CD0818C85B8B8A1AB4CEEEF8D981C8956A6 PUSH2 0xEE9 PUSH2 0x10F1 JUMP JUMPDEST PUSH2 0xBC6 JUMP JUMPDEST PUSH2 0xF2D JUMPI PUSH1 0x40 MLOAD PUSH32 0x8C379A000000000000000000000000000000000000000000000000000000000 DUP2 MSTORE PUSH1 0x4 ADD PUSH2 0xF24 SWAP1 PUSH2 0x309C JUMP JUMPDEST PUSH1 0x40 MLOAD DUP1 SWAP2 SUB SWAP1 REVERT JUMPDEST PUSH0 PUSH2 0xF37 DUP3 PUSH2 0x17AD JUMP JUMPDEST SWAP1 POP PUSH2 0xF4E DUP4 DUP3 DUP5 PUSH2 0xF49 SWAP2 SWAP1 PUSH2 0x30E7 JUMP JUMPDEST PUSH2 0x143E JUMP JUMPDEST PUSH2 0xF63 DUP4 DUP3 DUP5 PUSH2 0xF5E SWAP2 SWAP1 PUSH2 0x30E7 JUMP JUMPDEST PUSH2 0x14BD JUMP JUMPDEST POP POP POP JUMP JUMPDEST PUSH0 PUSH1 0x3 PUSH0 DUP5 PUSH20 0xFFFFFFFFFFFFFFFFFFFFFFFFFFFFFFFFFFFFFFFF AND PUSH20 0xFFFFFFFFFFFFFFFFFFFFFFFFFFFFFFFFFFFFFFFF AND DUP2 MSTORE PUSH1 0x20 ADD SWAP1 DUP2 MSTORE PUSH1 0x20 ADD PUSH0 KECCAK256 PUSH0 DUP4 PUSH20 0xFFFFFFFFFFFFFFFFFFFFFFFFFFFFFFFFFFFFFFFF AND PUSH20 0xFFFFFFFFFFFFFFFFFFFFFFFFFFFFFFFFFFFFFFFF AND DUP2 MSTORE PUSH1 0x20 ADD SWAP1 DUP2 MSTORE PUSH1 0x20 ADD PUSH0 KECCAK256 SLOAD SWAP1 POP SWAP3 SWAP2 POP POP JUMP JUMPDEST PUSH2 0xFFD PUSH0 PUSH0 SHL PUSH2 0xFF8 PUSH2 0x10F1 JUMP JUMPDEST PUSH2 0xBC6 JUMP JUMPDEST PUSH2 0x103C JUMPI PUSH1 0x40 MLOAD PUSH32 0x8C379A000000000000000000000000000000000000000000000000000000000 DUP2 MSTORE PUSH1 0x4 ADD PUSH2 0x1033 SWAP1 PUSH2 0x3164 JUMP JUMPDEST PUSH1 0x40 MLOAD DUP1 SWAP2 SUB SWAP1 REVERT JUMPDEST PUSH2 0x1046 DUP3 DUP3 PUSH2 0x143E JUMP JUMPDEST PUSH2 0x1050 DUP3 DUP3 PUSH2 0x14BD JUMP JUMPDEST POP POP JUMP JUMPDEST PUSH32 0x65D7A28E3265B37A6474929F336521B332C1681B933F6CB9F3376673440D862A DUP2 JUMP JUMPDEST PUSH0 PUSH32 0x7965DB0B00000000000000000000000000000000000000000000000000000000 PUSH28 0xFFFFFFFFFFFFFFFFFFFFFFFFFFFFFFFFFFFFFFFFFFFFFFFFFFFFFFFF NOT AND DUP3 PUSH28 0xFFFFFFFFFFFFFFFFFFFFFFFFFFFFFFFFFFFFFFFFFFFFFFFFFFFFFFFF NOT AND EQ DUP1 PUSH2 0x10EA JUMPI POP PUSH2 0x10E9 DUP3 PUSH2 0x17CE JUMP JUMPDEST JUMPDEST SWAP1 POP SWAP2 SWAP1 POP JUMP JUMPDEST PUSH0 CALLER SWAP1 POP SWAP1 JUMP JUMPDEST PUSH2 0x1105 DUP4 DUP4 DUP4 PUSH1 0x1 PUSH2 0x1837 JUMP JUMPDEST POP POP POP JUMP JUMPDEST PUSH0 PUSH2 0x1115 DUP5 DUP5 PUSH2 0xF68 JUMP JUMPDEST SWAP1 POP PUSH32 0xFFFFFFFFFFFFFFFFFFFFFFFFFFFFFFFFFFFFFFFFFFFFFFFFFFFFFFFFFFFFFFFF DUP2 LT ISZERO PUSH2 0x1197 JUMPI DUP2 DUP2 LT ISZERO PUSH2 0x1188 JUMPI DUP3 DUP2 DUP4 PUSH1 0x40 MLOAD PUSH32 0xFB8F41B200000000000000000000000000000000000000000000000000000000 DUP2 MSTORE PUSH1 0x4 ADD PUSH2 0x117F SWAP4 SWAP3 SWAP2 SWAP1 PUSH2 0x3182 JUMP JUMPDEST PUSH1 0x40 MLOAD DUP1 SWAP2 SUB SWAP1 REVERT JUMPDEST PUSH2 0x1196 DUP5 DUP5 DUP5 DUP5 SUB PUSH0 PUSH2 0x1837 JUMP JUMPDEST JUMPDEST POP POP POP POP JUMP JUMPDEST PUSH0 PUSH20 0xFFFFFFFFFFFFFFFFFFFFFFFFFFFFFFFFFFFFFFFF AND DUP4 PUSH20 0xFFFFFFFFFFFFFFFFFFFFFFFFFFFFFFFFFFFFFFFF AND SUB PUSH2 0x120D JUMPI PUSH0 PUSH1 0x40 MLOAD PUSH32 0x96C6FD1E00000000000000000000000000000000000000000000000000000000 DUP2 MSTORE PUSH1 0x4 ADD PUSH2 0x1204 SWAP2 SWAP1 PUSH2 0x2B7D JUMP JUMPDEST PUSH1 0x40 MLOAD DUP1 SWAP2 SUB SWAP1 REVERT JUMPDEST PUSH0 PUSH20 0xFFFFFFFFFFFFFFFFFFFFFFFFFFFFFFFFFFFFFFFF AND DUP3 PUSH20 0xFFFFFFFFFFFFFFFFFFFFFFFFFFFFFFFFFFFFFFFF AND SUB PUSH2 0x127D JUMPI PUSH0 PUSH1 0x40 MLOAD PUSH32 0xEC442F0500000000000000000000000000000000000000000000000000000000 DUP2 MSTORE PUSH1 0x4 ADD PUSH2 0x1274 SWAP2 SWAP1 PUSH2 0x2B7D JUMP JUMPDEST PUSH1 0x40 MLOAD DUP1 SWAP2 SUB SWAP1 REVERT JUMPDEST PUSH2 0x1288 DUP4 DUP4 DUP4 PUSH2 0x1A06 JUMP JUMPDEST POP POP POP JUMP JUMPDEST PUSH2 0x129E DUP2 PUSH2 0x1299 PUSH2 0x10F1 JUMP JUMPDEST PUSH2 0x1A16 JUMP JUMPDEST POP JUMP JUMPDEST PUSH0 PUSH0 PUSH2 0x12AD DUP5 DUP5 PUSH2 0x1A67 JUMP JUMPDEST SWAP1 POP DUP1 ISZERO PUSH2 0x12DA JUMPI PUSH2 0x12D8 DUP4 PUSH1 0x1 PUSH0 DUP8 DUP2 MSTORE PUSH1 0x20 ADD SWAP1 DUP2 MSTORE PUSH1 0x20 ADD PUSH0 KECCAK256 PUSH2 0x1B50 SWAP1 SWAP2 SWAP1 PUSH4 0xFFFFFFFF AND JUMP JUMPDEST POP JUMPDEST DUP1 SWAP2 POP POP SWAP3 SWAP2 POP POP JUMP JUMPDEST PUSH0 PUSH32 0x0 PUSH20 0xFFFFFFFFFFFFFFFFFFFFFFFFFFFFFFFFFFFFFFFF AND ADDRESS PUSH20 0xFFFFFFFFFFFFFFFFFFFFFFFFFFFFFFFFFFFFFFFF AND EQ DUP1 ISZERO PUSH2 0x135F JUMPI POP PUSH32 0x0 CHAINID EQ JUMPDEST ISZERO PUSH2 0x138C JUMPI PUSH32 0x0 SWAP1 POP PUSH2 0x1397 JUMP JUMPDEST PUSH2 0x1394 PUSH2 0x1B7D JUMP JUMPDEST SWAP1 POP JUMPDEST SWAP1 JUMP JUMPDEST PUSH0 PUSH0 PUSH2 0x13A6 DUP5 DUP5 PUSH2 0x1C12 JUMP JUMPDEST SWAP1 POP DUP1 ISZERO PUSH2 0x13D3 JUMPI PUSH2 0x13D1 DUP4 PUSH1 0x1 PUSH0 DUP8 DUP2 MSTORE PUSH1 0x20 ADD SWAP1 DUP2 MSTORE PUSH1 0x20 ADD PUSH0 KECCAK256 PUSH2 0x1CFB SWAP1 SWAP2 SWAP1 PUSH4 0xFFFFFFFF AND JUMP JUMPDEST POP JUMPDEST DUP1 SWAP2 POP POP SWAP3 SWAP2 POP POP JUMP JUMPDEST PUSH2 0x13E5 PUSH2 0x1D28 JUMP JUMPDEST PUSH0 PUSH1 0xA PUSH0 PUSH2 0x100 EXP DUP2 SLOAD DUP2 PUSH1 0xFF MUL NOT AND SWAP1 DUP4 ISZERO ISZERO MUL OR SWAP1 SSTORE POP PUSH32 0x5DB9EE0A495BF2E6FF9C91A7834C1BA4FDD244A5E8AA4E537BD38AEAE4B073AA PUSH2 0x1427 PUSH2 0x10F1 JUMP JUMPDEST PUSH1 0x40 MLOAD PUSH2 0x1434 SWAP2 SWAP1 PUSH2 0x2B7D JUMP JUMPDEST PUSH1 0x40 MLOAD DUP1 SWAP2 SUB SWAP1 LOG1 JUMP JUMPDEST PUSH0 PUSH20 0xFFFFFFFFFFFFFFFFFFFFFFFFFFFFFFFFFFFFFFFF AND DUP3 PUSH20 0xFFFFFFFFFFFFFFFFFFFFFFFFFFFFFFFFFFFFFFFF AND SUB PUSH2 0x14AE JUMPI PUSH0 PUSH1 0x40 MLOAD PUSH32 0xEC442F0500000000000000000000000000000000000000000000000000000000 DUP2 MSTORE PUSH1 0x4 ADD PUSH2 0x14A5 SWAP2 SWAP1 PUSH2 0x2B7D JUMP JUMPDEST PUSH1 0x40 MLOAD DUP1 SWAP2 SUB SWAP1 REVERT JUMPDEST PUSH2 0x14B9 PUSH0 DUP4 DUP4 PUSH2 0x1A06 JUMP JUMPDEST POP POP JUMP JUMPDEST PUSH2 0x14C5 PUSH2 0x10F1 JUMP JUMPDEST PUSH20 0xFFFFFFFFFFFFFFFFFFFFFFFFFFFFFFFFFFFFFFFF AND DUP3 PUSH20 0xFFFFFFFFFFFFFFFFFFFFFFFFFFFFFFFFFFFFFFFF AND PUSH32 0x6C08563DB066C6418C703C5D5DD75E71B7F23AA31441A280582D6A9DA0B6FFB2 DUP4 PUSH1 0x40 MLOAD PUSH2 0x1521 SWAP2 SWAP1 PUSH2 0x2806 JUMP JUMPDEST PUSH1 0x40 MLOAD DUP1 SWAP2 SUB SWAP1 LOG3 POP POP JUMP JUMPDEST PUSH0 PUSH20 0xFFFFFFFFFFFFFFFFFFFFFFFFFFFFFFFFFFFFFFFF AND DUP3 PUSH20 0xFFFFFFFFFFFFFFFFFFFFFFFFFFFFFFFFFFFFFFFF AND SUB PUSH2 0x159D JUMPI PUSH0 PUSH1 0x40 MLOAD PUSH32 0x96C6FD1E00000000000000000000000000000000000000000000000000000000 DUP2 MSTORE PUSH1 0x4 ADD PUSH2 0x1594 SWAP2 SWAP1 PUSH2 0x2B7D JUMP JUMPDEST PUSH1 0x40 MLOAD DUP1 SWAP2 SUB SWAP1 REVERT JUMPDEST PUSH2 0x15A8 DUP3 PUSH0 DUP4 PUSH2 0x1A06 JUMP JUMPDEST POP POP JUMP JUMPDEST PUSH0 PUSH1 0x9 PUSH0 DUP4 PUSH20 0xFFFFFFFFFFFFFFFFFFFFFFFFFFFFFFFFFFFFFFFF AND PUSH20 0xFFFFFFFFFFFFFFFFFFFFFFFFFFFFFFFFFFFFFFFF AND DUP2 MSTORE PUSH1 0x20 ADD SWAP1 DUP2 MSTORE PUSH1 0x20 ADD PUSH0 KECCAK256 SLOAD SWAP1 POP SWAP2 SWAP1 POP JUMP JUMPDEST PUSH2 0x15FA PUSH2 0x1D68 JUMP JUMPDEST PUSH1 0x1 PUSH1 0xA PUSH0 PUSH2 0x100 EXP DUP2 SLOAD DUP2 PUSH1 0xFF MUL NOT AND SWAP1 DUP4 ISZERO ISZERO MUL OR SWAP1 SSTORE POP PUSH32 0x62E78CEA01BEE320CD4E420270B5EA74000D11B0C9F74754EBDBFC544B05A258 PUSH2 0x163D PUSH2 0x10F1 JUMP JUMPDEST PUSH1 0x40 MLOAD PUSH2 0x164A SWAP2 SWAP1 PUSH2 0x2B7D JUMP JUMPDEST PUSH1 0x40 MLOAD DUP1 SWAP2 SUB SWAP1 LOG1 JUMP JUMPDEST PUSH1 0x60 PUSH2 0x168A PUSH1 0x7 PUSH32 0x0 PUSH2 0x1DA9 SWAP1 SWAP2 SWAP1 PUSH4 0xFFFFFFFF AND JUMP JUMPDEST SWAP1 POP SWAP1 JUMP JUMPDEST PUSH1 0x60 PUSH2 0x16C5 PUSH1 0x8 PUSH32 0x0 PUSH2 0x1DA9 SWAP1 SWAP2 SWAP1 PUSH4 0xFFFFFFFF AND JUMP JUMPDEST SWAP1 POP SWAP1 JUMP JUMPDEST PUSH0 PUSH2 0x16D7 DUP4 PUSH0 ADD DUP4 PUSH2 0x1E56 JUMP JUMPDEST PUSH0 SHR SWAP1 POP SWAP3 SWAP2 POP POP JUMP JUMPDEST PUSH1 0x60 PUSH0 PUSH2 0x16EF DUP4 PUSH0 ADD PUSH2 0x1E7D JUMP JUMPDEST SWAP1 POP PUSH1 0x60 DUP2 SWAP1 POP DUP1 SWAP3 POP POP POP SWAP2 SWAP1 POP JUMP JUMPDEST PUSH0 PUSH2 0x170C DUP3 PUSH0 ADD PUSH2 0x1ED6 JUMP JUMPDEST SWAP1 POP SWAP2 SWAP1 POP JUMP JUMPDEST PUSH0 PUSH1 0x9 PUSH0 DUP4 PUSH20 0xFFFFFFFFFFFFFFFFFFFFFFFFFFFFFFFFFFFFFFFF AND PUSH20 0xFFFFFFFFFFFFFFFFFFFFFFFFFFFFFFFFFFFFFFFF AND DUP2 MSTORE PUSH1 0x20 ADD SWAP1 DUP2 MSTORE PUSH1 0x20 ADD PUSH0 KECCAK256 PUSH0 DUP2 SLOAD DUP1 SWAP3 SWAP2 SWAP1 PUSH1 0x1 ADD SWAP2 SWAP1 POP SSTORE SWAP1 POP SWAP2 SWAP1 POP JUMP JUMPDEST PUSH0 PUSH2 0x1778 PUSH2 0x1772 PUSH2 0x12E4 JUMP JUMPDEST DUP4 PUSH2 0x1EE5 JUMP JUMPDEST SWAP1 POP SWAP2 SWAP1 POP JUMP JUMPDEST PUSH0 PUSH0 PUSH0 PUSH0 PUSH2 0x178F DUP9 DUP9 DUP9 DUP9 PUSH2 0x1F25 JUMP JUMPDEST SWAP3 POP SWAP3 POP SWAP3 POP PUSH2 0x179F DUP3 DUP3 PUSH2 0x200C JUMP JUMPDEST DUP3 SWAP4 POP POP POP POP SWAP5 SWAP4 POP POP POP POP JUMP JUMPDEST PUSH0 PUSH1 0x64 PUSH1 0xA DUP4 PUSH2 0x17BD SWAP2 SWAP1 PUSH2 0x31B7 JUMP JUMPDEST PUSH2 0x17C7 SWAP2 SWAP1 PUSH2 0x3225 JUMP JUMPDEST SWAP1 POP SWAP2 SWAP1 POP JUMP JUMPDEST PUSH0 PUSH32 0x1FFC9A700000000000000000000000000000000000000000000000000000000 PUSH28 0xFFFFFFFFFFFFFFFFFFFFFFFFFFFFFFFFFFFFFFFFFFFFFFFFFFFFFFFF NOT AND DUP3 PUSH28 0xFFFFFFFFFFFFFFFFFFFFFFFFFFFFFFFFFFFFFFFFFFFFFFFFFFFFFFFF NOT AND EQ SWAP1 POP SWAP2 SWAP1 POP JUMP JUMPDEST PUSH0 PUSH20 0xFFFFFFFFFFFFFFFFFFFFFFFFFFFFFFFFFFFFFFFF AND DUP5 PUSH20 0xFFFFFFFFFFFFFFFFFFFFFFFFFFFFFFFFFFFFFFFF AND SUB PUSH2 0x18A7 JUMPI PUSH0 PUSH1 0x40 MLOAD PUSH32 0xE602DF0500000000000000000000000000000000000000000000000000000000 DUP2 MSTORE PUSH1 0x4 ADD PUSH2 0x189E SWAP2 SWAP1 PUSH2 0x2B7D JUMP JUMPDEST PUSH1 0x40 MLOAD DUP1 SWAP2 SUB SWAP1 REVERT JUMPDEST PUSH0 PUSH20 0xFFFFFFFFFFFFFFFFFFFFFFFFFFFFFFFFFFFFFFFF AND DUP4 PUSH20 0xFFFFFFFFFFFFFFFFFFFFFFFFFFFFFFFFFFFFFFFF AND SUB PUSH2 0x1917 JUMPI PUSH0 PUSH1 0x40 MLOAD PUSH32 0x94280D6200000000000000000000000000000000000000000000000000000000 DUP2 MSTORE PUSH1 0x4 ADD PUSH2 0x190E SWAP2 SWAP1 PUSH2 0x2B7D JUMP JUMPDEST PUSH1 0x40 MLOAD DUP1 SWAP2 SUB SWAP1 REVERT JUMPDEST DUP2 PUSH1 0x3 PUSH0 DUP7 PUSH20 0xFFFFFFFFFFFFFFFFFFFFFFFFFFFFFFFFFFFFFFFF AND PUSH20 0xFFFFFFFFFFFFFFFFFFFFFFFFFFFFFFFFFFFFFFFF AND DUP2 MSTORE PUSH1 0x20 ADD SWAP1 DUP2 MSTORE PUSH1 0x20 ADD PUSH0 KECCAK256 PUSH0 DUP6 PUSH20 0xFFFFFFFFFFFFFFFFFFFFFFFFFFFFFFFFFFFFFFFF AND PUSH20 0xFFFFFFFFFFFFFFFFFFFFFFFFFFFFFFFFFFFFFFFF AND DUP2 MSTORE PUSH1 0x20 ADD SWAP1 DUP2 MSTORE PUSH1 0x20 ADD PUSH0 KECCAK256 DUP2 SWAP1 SSTORE POP DUP1 ISZERO PUSH2 0x1A00 JUMPI DUP3 PUSH20 0xFFFFFFFFFFFFFFFFFFFFFFFFFFFFFFFFFFFFFFFF AND DUP5 PUSH20 0xFFFFFFFFFFFFFFFFFFFFFFFFFFFFFFFFFFFFFFFF AND PUSH32 0x8C5BE1E5EBEC7D5BD14F71427D1E84F3DD0314C0F7B2291E5B200AC8C7C3B925 DUP5 PUSH1 0x40 MLOAD PUSH2 0x19F7 SWAP2 SWAP1 PUSH2 0x2806 JUMP JUMPDEST PUSH1 0x40 MLOAD DUP1 SWAP2 SUB SWAP1 LOG3 JUMPDEST POP POP POP POP JUMP JUMPDEST PUSH2 0x1A11 DUP4 DUP4 DUP4 PUSH2 0x216E JUMP JUMPDEST POP POP POP JUMP JUMPDEST PUSH2 0x1A20 DUP3 DUP3 PUSH2 0xBC6 JUMP JUMPDEST PUSH2 0x1A63 JUMPI DUP1 DUP3 PUSH1 0x40 MLOAD PUSH32 0xE2517D3F00000000000000000000000000000000000000000000000000000000 DUP2 MSTORE PUSH1 0x4 ADD PUSH2 0x1A5A SWAP3 SWAP2 SWAP1 PUSH2 0x3255 JUMP JUMPDEST PUSH1 0x40 MLOAD DUP1 SWAP2 SUB SWAP1 REVERT JUMPDEST POP POP JUMP JUMPDEST PUSH0 PUSH2 0x1A72 DUP4 DUP4 PUSH2 0xBC6 JUMP JUMPDEST PUSH2 0x1B46 JUMPI PUSH1 0x1 PUSH0 PUSH0 DUP6 DUP2 MSTORE PUSH1 0x20 ADD SWAP1 DUP2 MSTORE PUSH1 0x20 ADD PUSH0 KECCAK256 PUSH0 ADD PUSH0 DUP5 PUSH20 0xFFFFFFFFFFFFFFFFFFFFFFFFFFFFFFFFFFFFFFFF AND PUSH20 0xFFFFFFFFFFFFFFFFFFFFFFFFFFFFFFFFFFFFFFFF AND DUP2 MSTORE PUSH1 0x20 ADD SWAP1 DUP2 MSTORE PUSH1 0x20 ADD PUSH0 KECCAK256 PUSH0 PUSH2 0x100 EXP DUP2 SLOAD DUP2 PUSH1 0xFF MUL NOT AND SWAP1 DUP4 ISZERO ISZERO MUL OR SWAP1 SSTORE POP PUSH2 0x1AE3 PUSH2 0x10F1 JUMP JUMPDEST PUSH20 0xFFFFFFFFFFFFFFFFFFFFFFFFFFFFFFFFFFFFFFFF AND DUP3 PUSH20 0xFFFFFFFFFFFFFFFFFFFFFFFFFFFFFFFFFFFFFFFF AND DUP5 PUSH32 0x2F8788117E7EFF1D82E926EC794901D17C78024A50270940304540A733656F0D PUSH1 0x40 MLOAD PUSH1 0x40 MLOAD DUP1 SWAP2 SUB SWAP1 LOG4 PUSH1 0x1 SWAP1 POP PUSH2 0x1B4A JUMP JUMPDEST PUSH0 SWAP1 POP JUMPDEST SWAP3 SWAP2 POP POP JUMP JUMPDEST PUSH0 PUSH2 0x1B75 DUP4 PUSH0 ADD DUP4 PUSH20 0xFFFFFFFFFFFFFFFFFFFFFFFFFFFFFFFFFFFFFFFF AND PUSH0 SHL PUSH2 0x2186 JUMP JUMPDEST SWAP1 POP SWAP3 SWAP2 POP POP JUMP JUMPDEST PUSH0 PUSH32 0x8B73C3C69BB8FE3D512ECC4CF759CC79239F7B179B0FFACAA9A75D522B39400F PUSH32 0x0 PUSH32 0x0 CHAINID ADDRESS PUSH1 0x40 MLOAD PUSH1 0x20 ADD PUSH2 0x1BF7 SWAP6 SWAP5 SWAP4 SWAP3 SWAP2 SWAP1 PUSH2 0x327C JUMP JUMPDEST PUSH1 0x40 MLOAD PUSH1 0x20 DUP2 DUP4 SUB SUB DUP2 MSTORE SWAP1 PUSH1 0x40 MSTORE DUP1 MLOAD SWAP1 PUSH1 0x20 ADD KECCAK256 SWAP1 POP SWAP1 JUMP JUMPDEST PUSH0 PUSH2 0x1C1D DUP4 DUP4 PUSH2 0xBC6 JUMP JUMPDEST ISZERO PUSH2 0x1CF1 JUMPI PUSH0 PUSH0 PUSH0 DUP6 DUP2 MSTORE PUSH1 0x20 ADD SWAP1 DUP2 MSTORE PUSH1 0x20 ADD PUSH0 KECCAK256 PUSH0 ADD PUSH0 DUP5 PUSH20 0xFFFFFFFFFFFFFFFFFFFFFFFFFFFFFFFFFFFFFFFF AND PUSH20 0xFFFFFFFFFFFFFFFFFFFFFFFFFFFFFFFFFFFFFFFF AND DUP2 MSTORE PUSH1 0x20 ADD SWAP1 DUP2 MSTORE PUSH1 0x20 ADD PUSH0 KECCAK256 PUSH0 PUSH2 0x100 EXP DUP2 SLOAD DUP2 PUSH1 0xFF MUL NOT AND SWAP1 DUP4 ISZERO ISZERO MUL OR SWAP1 SSTORE POP PUSH2 0x1C8E PUSH2 0x10F1 JUMP JUMPDEST PUSH20 0xFFFFFFFFFFFFFFFFFFFFFFFFFFFFFFFFFFFFFFFF AND DUP3 PUSH20 0xFFFFFFFFFFFFFFFFFFFFFFFFFFFFFFFFFFFFFFFF AND DUP5 PUSH32 0xF6391F5C32D9C69D2A47EA670B442974B53935D1EDC7FD64EB21E047A839171B PUSH1 0x40 MLOAD PUSH1 0x40 MLOAD DUP1 SWAP2 SUB SWAP1 LOG4 PUSH1 0x1 SWAP1 POP PUSH2 0x1CF5 JUMP JUMPDEST PUSH0 SWAP1 POP JUMPDEST SWAP3 SWAP2 POP POP JUMP JUMPDEST PUSH0 PUSH2 0x1D20 DUP4 PUSH0 ADD DUP4 PUSH20 0xFFFFFFFFFFFFFFFFFFFFFFFFFFFFFFFFFFFFFFFF AND PUSH0 SHL PUSH2 0x21ED JUMP JUMPDEST SWAP1 POP SWAP3 SWAP2 POP POP JUMP JUMPDEST PUSH2 0x1D30 PUSH2 0x9EF JUMP JUMPDEST PUSH2 0x1D66 JUMPI PUSH1 0x40 MLOAD PUSH32 0x8DFC202B00000000000000000000000000000000000000000000000000000000 DUP2 MSTORE PUSH1 0x4 ADD PUSH1 0x40 MLOAD DUP1 SWAP2 SUB SWAP1 REVERT JUMPDEST JUMP JUMPDEST PUSH2 0x1D70 PUSH2 0x9EF JUMP JUMPDEST ISZERO PUSH2 0x1DA7 JUMPI PUSH1 0x40 MLOAD PUSH32 0xD93C066500000000000000000000000000000000000000000000000000000000 DUP2 MSTORE PUSH1 0x4 ADD PUSH1 0x40 MLOAD DUP1 SWAP2 SUB SWAP1 REVERT JUMPDEST JUMP JUMPDEST PUSH1 0x60 PUSH1 0xFF PUSH0 SHL DUP4 EQ PUSH2 0x1DC5 JUMPI PUSH2 0x1DBE DUP4 PUSH2 0x22E9 JUMP JUMPDEST SWAP1 POP PUSH2 0x1E50 JUMP JUMPDEST DUP2 DUP1 SLOAD PUSH2 0x1DD1 SWAP1 PUSH2 0x2D9F JUMP JUMPDEST DUP1 PUSH1 0x1F ADD PUSH1 0x20 DUP1 SWAP2 DIV MUL PUSH1 0x20 ADD PUSH1 0x40 MLOAD SWAP1 DUP2 ADD PUSH1 0x40 MSTORE DUP1 SWAP3 SWAP2 SWAP1 DUP2 DUP2 MSTORE PUSH1 0x20 ADD DUP3 DUP1 SLOAD PUSH2 0x1DFD SWAP1 PUSH2 0x2D9F JUMP JUMPDEST DUP1 ISZERO PUSH2 0x1E48 JUMPI DUP1 PUSH1 0x1F LT PUSH2 0x1E1F JUMPI PUSH2 0x100 DUP1 DUP4 SLOAD DIV MUL DUP4 MSTORE SWAP2 PUSH1 0x20 ADD SWAP2 PUSH2 0x1E48 JUMP JUMPDEST DUP3 ADD SWAP2 SWAP1 PUSH0 MSTORE PUSH1 0x20 PUSH0 KECCAK256 SWAP1 JUMPDEST DUP2 SLOAD DUP2 MSTORE SWAP1 PUSH1 0x1 ADD SWAP1 PUSH1 0x20 ADD DUP1 DUP4 GT PUSH2 0x1E2B JUMPI DUP3 SWAP1 SUB PUSH1 0x1F AND DUP3 ADD SWAP2 JUMPDEST POP POP POP POP POP SWAP1 POP JUMPDEST SWAP3 SWAP2 POP POP JUMP JUMPDEST PUSH0 DUP3 PUSH0 ADD DUP3 DUP2 SLOAD DUP2 LT PUSH2 0x1E6C JUMPI PUSH2 0x1E6B PUSH2 0x32CD JUMP JUMPDEST JUMPDEST SWAP1 PUSH0 MSTORE PUSH1 0x20 PUSH0 KECCAK256 ADD SLOAD SWAP1 POP SWAP3 SWAP2 POP POP JUMP JUMPDEST PUSH1 0x60 DUP2 PUSH0 ADD DUP1 SLOAD DUP1 PUSH1 0x20 MUL PUSH1 0x20 ADD PUSH1 0x40 MLOAD SWAP1 DUP2 ADD PUSH1 0x40 MSTORE DUP1 SWAP3 SWAP2 SWAP1 DUP2 DUP2 MSTORE PUSH1 0x20 ADD DUP3 DUP1 SLOAD DUP1 ISZERO PUSH2 0x1ECA JUMPI PUSH1 0x20 MUL DUP3 ADD SWAP2 SWAP1 PUSH0 MSTORE PUSH1 0x20 PUSH0 KECCAK256 SWAP1 JUMPDEST DUP2 SLOAD DUP2 MSTORE PUSH1 0x20 ADD SWAP1 PUSH1 0x1 ADD SWAP1 DUP1 DUP4 GT PUSH2 0x1EB6 JUMPI JUMPDEST POP POP POP POP POP SWAP1 POP SWAP2 SWAP1 POP JUMP JUMPDEST PUSH0 DUP2 PUSH0 ADD DUP1 SLOAD SWAP1 POP SWAP1 POP SWAP2 SWAP1 POP JUMP JUMPDEST PUSH0 PUSH1 0x40 MLOAD PUSH32 0x1901000000000000000000000000000000000000000000000000000000000000 DUP2 MSTORE DUP4 PUSH1 0x2 DUP3 ADD MSTORE DUP3 PUSH1 0x22 DUP3 ADD MSTORE PUSH1 0x42 DUP2 KECCAK256 SWAP2 POP POP SWAP3 SWAP2 POP POP JUMP JUMPDEST PUSH0 PUSH0 PUSH0 PUSH32 0x7FFFFFFFFFFFFFFFFFFFFFFFFFFFFFFF5D576E7357A4501DDFE92F46681B20A0 DUP5 PUSH0 SHR GT ISZERO PUSH2 0x1F61 JUMPI PUSH0 PUSH1 0x3 DUP6 SWAP3 POP SWAP3 POP SWAP3 POP PUSH2 0x2002 JUMP JUMPDEST PUSH0 PUSH1 0x1 DUP9 DUP9 DUP9 DUP9 PUSH1 0x40 MLOAD PUSH0 DUP2 MSTORE PUSH1 0x20 ADD PUSH1 0x40 MSTORE PUSH1 0x40 MLOAD PUSH2 0x1F84 SWAP5 SWAP4 SWAP3 SWAP2 SWAP1 PUSH2 0x32FA JUMP JUMPDEST PUSH1 0x20 PUSH1 0x40 MLOAD PUSH1 0x20 DUP2 SUB SWAP1 DUP1 DUP5 SUB SWAP1 DUP6 GAS STATICCALL ISZERO DUP1 ISZERO PUSH2 0x1FA4 JUMPI RETURNDATASIZE PUSH0 PUSH0 RETURNDATACOPY RETURNDATASIZE PUSH0 REVERT JUMPDEST POP POP POP PUSH1 0x20 PUSH1 0x40 MLOAD SUB MLOAD SWAP1 POP PUSH0 PUSH20 0xFFFFFFFFFFFFFFFFFFFFFFFFFFFFFFFFFFFFFFFF AND DUP2 PUSH20 0xFFFFFFFFFFFFFFFFFFFFFFFFFFFFFFFFFFFFFFFF AND SUB PUSH2 0x1FF5 JUMPI PUSH0 PUSH1 0x1 PUSH0 PUSH0 SHL SWAP4 POP SWAP4 POP SWAP4 POP POP PUSH2 0x2002 JUMP JUMPDEST DUP1 PUSH0 PUSH0 PUSH0 SHL SWAP4 POP SWAP4 POP SWAP4 POP POP JUMPDEST SWAP5 POP SWAP5 POP SWAP5 SWAP2 POP POP JUMP JUMPDEST PUSH0 PUSH1 0x3 DUP2 GT ISZERO PUSH2 0x201F JUMPI PUSH2 0x201E PUSH2 0x333D JUMP JUMPDEST JUMPDEST DUP3 PUSH1 0x3 DUP2 GT ISZERO PUSH2 0x2032 JUMPI PUSH2 0x2031 PUSH2 0x333D JUMP JUMPDEST JUMPDEST SUB ISZERO PUSH2 0x216A JUMPI PUSH1 0x1 PUSH1 0x3 DUP2 GT ISZERO PUSH2 0x204C JUMPI PUSH2 0x204B PUSH2 0x333D JUMP JUMPDEST JUMPDEST DUP3 PUSH1 0x3 DUP2 GT ISZERO PUSH2 0x205F JUMPI PUSH2 0x205E PUSH2 0x333D JUMP JUMPDEST JUMPDEST SUB PUSH2 0x2096 JUMPI PUSH1 0x40 MLOAD PUSH32 0xF645EEDF00000000000000000000000000000000000000000000000000000000 DUP2 MSTORE PUSH1 0x4 ADD PUSH1 0x40 MLOAD DUP1 SWAP2 SUB SWAP1 REVERT JUMPDEST PUSH1 0x2 PUSH1 0x3 DUP2 GT ISZERO PUSH2 0x20AA JUMPI PUSH2 0x20A9 PUSH2 0x333D JUMP JUMPDEST JUMPDEST DUP3 PUSH1 0x3 DUP2 GT ISZERO PUSH2 0x20BD JUMPI PUSH2 0x20BC PUSH2 0x333D JUMP JUMPDEST JUMPDEST SUB PUSH2 0x2101 JUMPI DUP1 PUSH0 SHR PUSH1 0x40 MLOAD PUSH32 0xFCE698F700000000000000000000000000000000000000000000000000000000 DUP2 MSTORE PUSH1 0x4 ADD PUSH2 0x20F8 SWAP2 SWAP1 PUSH2 0x2806 JUMP JUMPDEST PUSH1 0x40 MLOAD DUP1 SWAP2 SUB SWAP1 REVERT JUMPDEST PUSH1 0x3 DUP1 DUP2 GT ISZERO PUSH2 0x2114 JUMPI PUSH2 0x2113 PUSH2 0x333D JUMP JUMPDEST JUMPDEST DUP3 PUSH1 0x3 DUP2 GT ISZERO PUSH2 0x2127 JUMPI PUSH2 0x2126 PUSH2 0x333D JUMP JUMPDEST JUMPDEST SUB PUSH2 0x2169 JUMPI DUP1 PUSH1 0x40 MLOAD PUSH32 0xD78BCE0C00000000000000000000000000000000000000000000000000000000 DUP2 MSTORE PUSH1 0x4 ADD PUSH2 0x2160 SWAP2 SWAP1 PUSH2 0x28DC JUMP JUMPDEST PUSH1 0x40 MLOAD DUP1 SWAP2 SUB SWAP1 REVERT JUMPDEST JUMPDEST POP POP JUMP JUMPDEST PUSH2 0x2176 PUSH2 0x1D68 JUMP JUMPDEST PUSH2 0x2181 DUP4 DUP4 DUP4 PUSH2 0x235B JUMP JUMPDEST POP POP POP JUMP JUMPDEST PUSH0 PUSH2 0x2191 DUP4 DUP4 PUSH2 0x2577 JUMP JUMPDEST PUSH2 0x21E3 JUMPI DUP3 PUSH0 ADD DUP3 SWAP1 DUP1 PUSH1 0x1 DUP2 SLOAD ADD DUP1 DUP3 SSTORE DUP1 SWAP2 POP POP PUSH1 0x1 SWAP1 SUB SWAP1 PUSH0 MSTORE PUSH1 0x20 PUSH0 KECCAK256 ADD PUSH0 SWAP1 SWAP2 SWAP1 SWAP2 SWAP1 SWAP2 POP SSTORE DUP3 PUSH0 ADD DUP1 SLOAD SWAP1 POP DUP4 PUSH1 0x1 ADD PUSH0 DUP5 DUP2 MSTORE PUSH1 0x20 ADD SWAP1 DUP2 MSTORE PUSH1 0x20 ADD PUSH0 KECCAK256 DUP2 SWAP1 SSTORE POP PUSH1 0x1 SWAP1 POP PUSH2 0x21E7 JUMP JUMPDEST PUSH0 SWAP1 POP JUMPDEST SWAP3 SWAP2 POP POP JUMP JUMPDEST PUSH0 PUSH0 DUP4 PUSH1 0x1 ADD PUSH0 DUP5 DUP2 MSTORE PUSH1 0x20 ADD SWAP1 DUP2 MSTORE PUSH1 0x20 ADD PUSH0 KECCAK256 SLOAD SWAP1 POP PUSH0 DUP2 EQ PUSH2 0x22DE JUMPI PUSH0 PUSH1 0x1 DUP3 PUSH2 0x221A SWAP2 SWAP1 PUSH2 0x336A JUMP JUMPDEST SWAP1 POP PUSH0 PUSH1 0x1 DUP7 PUSH0 ADD DUP1 SLOAD SWAP1 POP PUSH2 0x2230 SWAP2 SWAP1 PUSH2 0x336A JUMP JUMPDEST SWAP1 POP DUP1 DUP3 EQ PUSH2 0x2296 JUMPI PUSH0 DUP7 PUSH0 ADD DUP3 DUP2 SLOAD DUP2 LT PUSH2 0x224F JUMPI PUSH2 0x224E PUSH2 0x32CD JUMP JUMPDEST JUMPDEST SWAP1 PUSH0 MSTORE PUSH1 0x20 PUSH0 KECCAK256 ADD SLOAD SWAP1 POP DUP1 DUP8 PUSH0 ADD DUP5 DUP2 SLOAD DUP2 LT PUSH2 0x2270 JUMPI PUSH2 0x226F PUSH2 0x32CD JUMP JUMPDEST JUMPDEST SWAP1 PUSH0 MSTORE PUSH1 0x20 PUSH0 KECCAK256 ADD DUP2 SWAP1 SSTORE POP DUP4 DUP8 PUSH1 0x1 ADD PUSH0 DUP4 DUP2 MSTORE PUSH1 0x20 ADD SWAP1 DUP2 MSTORE PUSH1 0x20 ADD PUSH0 KECCAK256 DUP2 SWAP1 SSTORE POP POP JUMPDEST DUP6 PUSH0 ADD DUP1 SLOAD DUP1 PUSH2 0x22A9 JUMPI PUSH2 0x22A8 PUSH2 0x339D JUMP JUMPDEST JUMPDEST PUSH1 0x1 SWAP1 SUB DUP2 DUP2 SWAP1 PUSH0 MSTORE PUSH1 0x20 PUSH0 KECCAK256 ADD PUSH0 SWAP1 SSTORE SWAP1 SSTORE DUP6 PUSH1 0x1 ADD PUSH0 DUP7 DUP2 MSTORE PUSH1 0x20 ADD SWAP1 DUP2 MSTORE PUSH1 0x20 ADD PUSH0 KECCAK256 PUSH0 SWAP1 SSTORE PUSH1 0x1 SWAP4 POP POP POP POP PUSH2 0x22E3 JUMP JUMPDEST PUSH0 SWAP2 POP POP JUMPDEST SWAP3 SWAP2 POP POP JUMP JUMPDEST PUSH1 0x60 PUSH0 PUSH2 0x22F5 DUP4 PUSH2 0x2597 JUMP JUMPDEST SWAP1 POP PUSH0 PUSH1 0x20 PUSH8 0xFFFFFFFFFFFFFFFF DUP2 GT ISZERO PUSH2 0x2313 JUMPI PUSH2 0x2312 PUSH2 0x2F79 JUMP JUMPDEST JUMPDEST PUSH1 0x40 MLOAD SWAP1 DUP1 DUP3 MSTORE DUP1 PUSH1 0x1F ADD PUSH1 0x1F NOT AND PUSH1 0x20 ADD DUP3 ADD PUSH1 0x40 MSTORE DUP1 ISZERO PUSH2 0x2345 JUMPI DUP2 PUSH1 0x20 ADD PUSH1 0x1 DUP3 MUL DUP1 CALLDATASIZE DUP4 CALLDATACOPY DUP1 DUP3 ADD SWAP2 POP POP SWAP1 POP JUMPDEST POP SWAP1 POP DUP2 DUP2 MSTORE DUP4 PUSH1 0x20 DUP3 ADD MSTORE DUP1 SWAP3 POP POP POP SWAP2 SWAP1 POP JUMP JUMPDEST PUSH0 PUSH20 0xFFFFFFFFFFFFFFFFFFFFFFFFFFFFFFFFFFFFFFFF AND DUP4 PUSH20 0xFFFFFFFFFFFFFFFFFFFFFFFFFFFFFFFFFFFFFFFF AND SUB PUSH2 0x23AB JUMPI DUP1 PUSH1 0x4 PUSH0 DUP3 DUP3 SLOAD PUSH2 0x239F SWAP2 SWAP1 PUSH2 0x30E7 JUMP JUMPDEST SWAP3 POP POP DUP2 SWAP1 SSTORE POP PUSH2 0x247B JUMP JUMPDEST PUSH0 PUSH1 0x2 PUSH0 DUP6 PUSH20 0xFFFFFFFFFFFFFFFFFFFFFFFFFFFFFFFFFFFFFFFF AND PUSH20 0xFFFFFFFFFFFFFFFFFFFFFFFFFFFFFFFFFFFFFFFF AND DUP2 MSTORE PUSH1 0x20 ADD SWAP1 DUP2 MSTORE PUSH1 0x20 ADD PUSH0 KECCAK256 SLOAD SWAP1 POP DUP2 DUP2 LT ISZERO PUSH2 0x2435 JUMPI DUP4 DUP2 DUP4 PUSH1 0x40 MLOAD PUSH32 0xE450D38C00000000000000000000000000000000000000000000000000000000 DUP2 MSTORE PUSH1 0x4 ADD PUSH2 0x242C SWAP4 SWAP3 SWAP2 SWAP1 PUSH2 0x3182 JUMP JUMPDEST PUSH1 0x40 MLOAD DUP1 SWAP2 SUB SWAP1 REVERT JUMPDEST DUP2 DUP2 SUB PUSH1 0x2 PUSH0 DUP7 PUSH20 0xFFFFFFFFFFFFFFFFFFFFFFFFFFFFFFFFFFFFFFFF AND PUSH20 0xFFFFFFFFFFFFFFFFFFFFFFFFFFFFFFFFFFFFFFFF AND DUP2 MSTORE PUSH1 0x20 ADD SWAP1 DUP2 MSTORE PUSH1 0x20 ADD PUSH0 KECCAK256 DUP2 SWAP1 SSTORE POP POP JUMPDEST PUSH0 PUSH20 0xFFFFFFFFFFFFFFFFFFFFFFFFFFFFFFFFFFFFFFFF AND DUP3 PUSH20 0xFFFFFFFFFFFFFFFFFFFFFFFFFFFFFFFFFFFFFFFF AND SUB PUSH2 0x24C2 JUMPI DUP1 PUSH1 0x4 PUSH0 DUP3 DUP3 SLOAD SUB SWAP3 POP POP DUP2 SWAP1 SSTORE POP PUSH2 0x250D JUMP JUMPDEST DUP1 PUSH1 0x2 PUSH0 DUP5 PUSH20 0xFFFFFFFFFFFFFFFFFFFFFFFFFFFFFFFFFFFFFFFF AND PUSH20 0xFFFFFFFFFFFFFFFFFFFFFFFFFFFFFFFFFFFFFFFF AND DUP2 MSTORE PUSH1 0x20 ADD SWAP1 DUP2 MSTORE PUSH1 0x20 ADD PUSH0 KECCAK256 PUSH0 DUP3 DUP3 SLOAD ADD SWAP3 POP POP DUP2 SWAP1 SSTORE POP JUMPDEST DUP2 PUSH20 0xFFFFFFFFFFFFFFFFFFFFFFFFFFFFFFFFFFFFFFFF AND DUP4 PUSH20 0xFFFFFFFFFFFFFFFFFFFFFFFFFFFFFFFFFFFFFFFF AND PUSH32 0xDDF252AD1BE2C89B69C2B068FC378DAA952BA7F163C4A11628F55A4DF523B3EF DUP4 PUSH1 0x40 MLOAD PUSH2 0x256A SWAP2 SWAP1 PUSH2 0x2806 JUMP JUMPDEST PUSH1 0x40 MLOAD DUP1 SWAP2 SUB SWAP1 LOG3 POP POP POP JUMP JUMPDEST PUSH0 PUSH0 DUP4 PUSH1 0x1 ADD PUSH0 DUP5 DUP2 MSTORE PUSH1 0x20 ADD SWAP1 DUP2 MSTORE PUSH1 0x20 ADD PUSH0 KECCAK256 SLOAD EQ ISZERO SWAP1 POP SWAP3 SWAP2 POP POP JUMP JUMPDEST PUSH0 PUSH0 PUSH1 0xFF DUP4 PUSH0 SHR AND SWAP1 POP PUSH1 0x1F DUP2 GT ISZERO PUSH2 0x25DC JUMPI PUSH1 0x40 MLOAD PUSH32 0xB3512B0C00000000000000000000000000000000000000000000000000000000 DUP2 MSTORE PUSH1 0x4 ADD PUSH1 0x40 MLOAD DUP1 SWAP2 SUB SWAP1 REVERT JUMPDEST DUP1 SWAP2 POP POP SWAP2 SWAP1 POP JUMP JUMPDEST PUSH0 PUSH0 REVERT JUMPDEST PUSH0 PUSH32 0xFFFFFFFF00000000000000000000000000000000000000000000000000000000 DUP3 AND SWAP1 POP SWAP2 SWAP1 POP JUMP JUMPDEST PUSH2 0x261D DUP2 PUSH2 0x25E9 JUMP JUMPDEST DUP2 EQ PUSH2 0x2627 JUMPI PUSH0 PUSH0 REVERT JUMPDEST POP JUMP JUMPDEST PUSH0 DUP2 CALLDATALOAD SWAP1 POP PUSH2 0x2638 DUP2 PUSH2 0x2614 JUMP JUMPDEST SWAP3 SWAP2 POP POP JUMP JUMPDEST PUSH0 PUSH1 0x20 DUP3 DUP5 SUB SLT ISZERO PUSH2 0x2653 JUMPI PUSH2 0x2652 PUSH2 0x25E5 JUMP JUMPDEST JUMPDEST PUSH0 PUSH2 0x2660 DUP5 DUP3 DUP6 ADD PUSH2 0x262A JUMP JUMPDEST SWAP2 POP POP SWAP3 SWAP2 POP POP JUMP JUMPDEST PUSH0 DUP2 ISZERO ISZERO SWAP1 POP SWAP2 SWAP1 POP JUMP JUMPDEST PUSH2 0x267D DUP2 PUSH2 0x2669 JUMP JUMPDEST DUP3 MSTORE POP POP JUMP JUMPDEST PUSH0 PUSH1 0x20 DUP3 ADD SWAP1 POP PUSH2 0x2696 PUSH0 DUP4 ADD DUP5 PUSH2 0x2674 JUMP JUMPDEST SWAP3 SWAP2 POP POP JUMP JUMPDEST PUSH0 DUP2 MLOAD SWAP1 POP SWAP2 SWAP1 POP JUMP JUMPDEST PUSH0 DUP3 DUP3 MSTORE PUSH1 0x20 DUP3 ADD SWAP1 POP SWAP3 SWAP2 POP POP JUMP JUMPDEST DUP3 DUP2 DUP4 MCOPY PUSH0 DUP4 DUP4 ADD MSTORE POP POP POP JUMP JUMPDEST PUSH0 PUSH1 0x1F NOT PUSH1 0x1F DUP4 ADD AND SWAP1 POP SWAP2 SWAP1 POP JUMP JUMPDEST PUSH0 PUSH2 0x26DE DUP3 PUSH2 0x269C JUMP JUMPDEST PUSH2 0x26E8 DUP2 DUP6 PUSH2 0x26A6 JUMP JUMPDEST SWAP4 POP PUSH2 0x26F8 DUP2 DUP6 PUSH1 0x20 DUP7 ADD PUSH2 0x26B6 JUMP JUMPDEST PUSH2 0x2701 DUP2 PUSH2 0x26C4 JUMP JUMPDEST DUP5 ADD SWAP2 POP POP SWAP3 SWAP2 POP POP JUMP JUMPDEST PUSH0 PUSH1 0x20 DUP3 ADD SWAP1 POP DUP2 DUP2 SUB PUSH0 DUP4 ADD MSTORE PUSH2 0x2724 DUP2 DUP5 PUSH2 0x26D4 JUMP JUMPDEST SWAP1 POP SWAP3 SWAP2 POP POP JUMP JUMPDEST PUSH0 PUSH20 0xFFFFFFFFFFFFFFFFFFFFFFFFFFFFFFFFFFFFFFFF DUP3 AND SWAP1 POP SWAP2 SWAP1 POP JUMP JUMPDEST PUSH0 PUSH2 0x2755 DUP3 PUSH2 0x272C JUMP JUMPDEST SWAP1 POP SWAP2 SWAP1 POP JUMP JUMPDEST PUSH2 0x2765 DUP2 PUSH2 0x274B JUMP JUMPDEST DUP2 EQ PUSH2 0x276F JUMPI PUSH0 PUSH0 REVERT JUMPDEST POP JUMP JUMPDEST PUSH0 DUP2 CALLDATALOAD SWAP1 POP PUSH2 0x2780 DUP2 PUSH2 0x275C JUMP JUMPDEST SWAP3 SWAP2 POP POP JUMP JUMPDEST PUSH0 DUP2 SWAP1 POP SWAP2 SWAP1 POP JUMP JUMPDEST PUSH2 0x2798 DUP2 PUSH2 0x2786 JUMP JUMPDEST DUP2 EQ PUSH2 0x27A2 JUMPI PUSH0 PUSH0 REVERT JUMPDEST POP JUMP JUMPDEST PUSH0 DUP2 CALLDATALOAD SWAP1 POP PUSH2 0x27B3 DUP2 PUSH2 0x278F JUMP JUMPDEST SWAP3 SWAP2 POP POP JUMP JUMPDEST PUSH0 PUSH0 PUSH1 0x40 DUP4 DUP6 SUB SLT ISZERO PUSH2 0x27CF JUMPI PUSH2 0x27CE PUSH2 0x25E5 JUMP JUMPDEST JUMPDEST PUSH0 PUSH2 0x27DC DUP6 DUP3 DUP7 ADD PUSH2 0x2772 JUMP JUMPDEST SWAP3 POP POP PUSH1 0x20 PUSH2 0x27ED DUP6 DUP3 DUP7 ADD PUSH2 0x27A5 JUMP JUMPDEST SWAP2 POP POP SWAP3 POP SWAP3 SWAP1 POP JUMP JUMPDEST PUSH2 0x2800 DUP2 PUSH2 0x2786 JUMP JUMPDEST DUP3 MSTORE POP POP JUMP JUMPDEST PUSH0 PUSH1 0x20 DUP3 ADD SWAP1 POP PUSH2 0x2819 PUSH0 DUP4 ADD DUP5 PUSH2 0x27F7 JUMP JUMPDEST SWAP3 SWAP2 POP POP JUMP JUMPDEST PUSH0 PUSH0 PUSH0 PUSH1 0x60 DUP5 DUP7 SUB SLT ISZERO PUSH2 0x2836 JUMPI PUSH2 0x2835 PUSH2 0x25E5 JUMP JUMPDEST JUMPDEST PUSH0 PUSH2 0x2843 DUP7 DUP3 DUP8 ADD PUSH2 0x2772 JUMP JUMPDEST SWAP4 POP POP PUSH1 0x20 PUSH2 0x2854 DUP7 DUP3 DUP8 ADD PUSH2 0x2772 JUMP JUMPDEST SWAP3 POP POP PUSH1 0x40 PUSH2 0x2865 DUP7 DUP3 DUP8 ADD PUSH2 0x27A5 JUMP JUMPDEST SWAP2 POP POP SWAP3 POP SWAP3 POP SWAP3 JUMP JUMPDEST PUSH0 DUP2 SWAP1 POP SWAP2 SWAP1 POP JUMP JUMPDEST PUSH2 0x2881 DUP2 PUSH2 0x286F JUMP JUMPDEST DUP2 EQ PUSH2 0x288B JUMPI PUSH0 PUSH0 REVERT JUMPDEST POP JUMP JUMPDEST PUSH0 DUP2 CALLDATALOAD SWAP1 POP PUSH2 0x289C DUP2 PUSH2 0x2878 JUMP JUMPDEST SWAP3 SWAP2 POP POP JUMP JUMPDEST PUSH0 PUSH1 0x20 DUP3 DUP5 SUB SLT ISZERO PUSH2 0x28B7 JUMPI PUSH2 0x28B6 PUSH2 0x25E5 JUMP JUMPDEST JUMPDEST PUSH0 PUSH2 0x28C4 DUP5 DUP3 DUP6 ADD PUSH2 0x288E JUMP JUMPDEST SWAP2 POP POP SWAP3 SWAP2 POP POP JUMP JUMPDEST PUSH2 0x28D6 DUP2 PUSH2 0x286F JUMP JUMPDEST DUP3 MSTORE POP POP JUMP JUMPDEST PUSH0 PUSH1 0x20 DUP3 ADD SWAP1 POP PUSH2 0x28EF PUSH0 DUP4 ADD DUP5 PUSH2 0x28CD JUMP JUMPDEST SWAP3 SWAP2 POP POP JUMP JUMPDEST PUSH0 PUSH0 PUSH1 0x40 DUP4 DUP6 SUB SLT ISZERO PUSH2 0x290B JUMPI PUSH2 0x290A PUSH2 0x25E5 JUMP JUMPDEST JUMPDEST PUSH0 PUSH2 0x2918 DUP6 DUP3 DUP7 ADD PUSH2 0x288E JUMP JUMPDEST SWAP3 POP POP PUSH1 0x20 PUSH2 0x2929 DUP6 DUP3 DUP7 ADD PUSH2 0x2772 JUMP JUMPDEST SWAP2 POP POP SWAP3 POP SWAP3 SWAP1 POP JUMP JUMPDEST PUSH0 PUSH1 0xFF DUP3 AND SWAP1 POP SWAP2 SWAP1 POP JUMP JUMPDEST PUSH2 0x2948 DUP2 PUSH2 0x2933 JUMP JUMPDEST DUP3 MSTORE POP POP JUMP JUMPDEST PUSH0 PUSH1 0x20 DUP3 ADD SWAP1 POP PUSH2 0x2961 PUSH0 DUP4 ADD DUP5 PUSH2 0x293F JUMP JUMPDEST SWAP3 SWAP2 POP POP JUMP JUMPDEST PUSH0 PUSH1 0x20 DUP3 DUP5 SUB SLT ISZERO PUSH2 0x297C JUMPI PUSH2 0x297B PUSH2 0x25E5 JUMP JUMPDEST JUMPDEST PUSH0 PUSH2 0x2989 DUP5 DUP3 DUP6 ADD PUSH2 0x27A5 JUMP JUMPDEST SWAP2 POP POP SWAP3 SWAP2 POP POP JUMP JUMPDEST PUSH0 PUSH1 0x20 DUP3 DUP5 SUB SLT ISZERO PUSH2 0x29A7 JUMPI PUSH2 0x29A6 PUSH2 0x25E5 JUMP JUMPDEST JUMPDEST PUSH0 PUSH2 0x29B4 DUP5 DUP3 DUP6 ADD PUSH2 0x2772 JUMP JUMPDEST SWAP2 POP POP SWAP3 SWAP2 POP POP JUMP JUMPDEST PUSH0 PUSH32 0xFF00000000000000000000000000000000000000000000000000000000000000 DUP3 AND SWAP1 POP SWAP2 SWAP1 POP JUMP JUMPDEST PUSH2 0x29F1 DUP2 PUSH2 0x29BD JUMP JUMPDEST DUP3 MSTORE POP POP JUMP JUMPDEST PUSH2 0x2A00 DUP2 PUSH2 0x274B JUMP JUMPDEST DUP3 MSTORE POP POP JUMP JUMPDEST PUSH0 DUP2 MLOAD SWAP1 POP SWAP2 SWAP1 POP JUMP JUMPDEST PUSH0 DUP3 DUP3 MSTORE PUSH1 0x20 DUP3 ADD SWAP1 POP SWAP3 SWAP2 POP POP JUMP JUMPDEST PUSH0 DUP2 SWAP1 POP PUSH1 0x20 DUP3 ADD SWAP1 POP SWAP2 SWAP1 POP JUMP JUMPDEST PUSH2 0x2A38 DUP2 PUSH2 0x2786 JUMP JUMPDEST DUP3 MSTORE POP POP JUMP JUMPDEST PUSH0 PUSH2 0x2A49 DUP4 DUP4 PUSH2 0x2A2F JUMP JUMPDEST PUSH1 0x20 DUP4 ADD SWAP1 POP SWAP3 SWAP2 POP POP JUMP JUMPDEST PUSH0 PUSH1 0x20 DUP3 ADD SWAP1 POP SWAP2 SWAP1 POP JUMP JUMPDEST PUSH0 PUSH2 0x2A6B DUP3 PUSH2 0x2A06 JUMP JUMPDEST PUSH2 0x2A75 DUP2 DUP6 PUSH2 0x2A10 JUMP JUMPDEST SWAP4 POP PUSH2 0x2A80 DUP4 PUSH2 0x2A20 JUMP JUMPDEST DUP1 PUSH0 JUMPDEST DUP4 DUP2 LT ISZERO PUSH2 0x2AB0 JUMPI DUP2 MLOAD PUSH2 0x2A97 DUP9 DUP3 PUSH2 0x2A3E JUMP JUMPDEST SWAP8 POP PUSH2 0x2AA2 DUP4 PUSH2 0x2A55 JUMP JUMPDEST SWAP3 POP POP PUSH1 0x1 DUP2 ADD SWAP1 POP PUSH2 0x2A83 JUMP JUMPDEST POP DUP6 SWAP4 POP POP POP POP SWAP3 SWAP2 POP POP JUMP JUMPDEST PUSH0 PUSH1 0xE0 DUP3 ADD SWAP1 POP PUSH2 0x2AD0 PUSH0 DUP4 ADD DUP11 PUSH2 0x29E8 JUMP JUMPDEST DUP2 DUP2 SUB PUSH1 0x20 DUP4 ADD MSTORE PUSH2 0x2AE2 DUP2 DUP10 PUSH2 0x26D4 JUMP JUMPDEST SWAP1 POP DUP2 DUP2 SUB PUSH1 0x40 DUP4 ADD MSTORE PUSH2 0x2AF6 DUP2 DUP9 PUSH2 0x26D4 JUMP JUMPDEST SWAP1 POP PUSH2 0x2B05 PUSH1 0x60 DUP4 ADD DUP8 PUSH2 0x27F7 JUMP JUMPDEST PUSH2 0x2B12 PUSH1 0x80 DUP4 ADD DUP7 PUSH2 0x29F7 JUMP JUMPDEST PUSH2 0x2B1F PUSH1 0xA0 DUP4 ADD DUP6 PUSH2 0x28CD JUMP JUMPDEST DUP2 DUP2 SUB PUSH1 0xC0 DUP4 ADD MSTORE PUSH2 0x2B31 DUP2 DUP5 PUSH2 0x2A61 JUMP JUMPDEST SWAP1 POP SWAP9 SWAP8 POP POP POP POP POP POP POP POP JUMP JUMPDEST PUSH0 PUSH0 PUSH1 0x40 DUP4 DUP6 SUB SLT ISZERO PUSH2 0x2B55 JUMPI PUSH2 0x2B54 PUSH2 0x25E5 JUMP JUMPDEST JUMPDEST PUSH0 PUSH2 0x2B62 DUP6 DUP3 DUP7 ADD PUSH2 0x288E JUMP JUMPDEST SWAP3 POP POP PUSH1 0x20 PUSH2 0x2B73 DUP6 DUP3 DUP7 ADD PUSH2 0x27A5 JUMP JUMPDEST SWAP2 POP POP SWAP3 POP SWAP3 SWAP1 POP JUMP JUMPDEST PUSH0 PUSH1 0x20 DUP3 ADD SWAP1 POP PUSH2 0x2B90 PUSH0 DUP4 ADD DUP5 PUSH2 0x29F7 JUMP JUMPDEST SWAP3 SWAP2 POP POP JUMP JUMPDEST PUSH0 DUP2 MLOAD SWAP1 POP SWAP2 SWAP1 POP JUMP JUMPDEST PUSH0 DUP3 DUP3 MSTORE PUSH1 0x20 DUP3 ADD SWAP1 POP SWAP3 SWAP2 POP POP JUMP JUMPDEST PUSH0 DUP2 SWAP1 POP PUSH1 0x20 DUP3 ADD SWAP1 POP SWAP2 SWAP1 POP JUMP JUMPDEST PUSH2 0x2BC8 DUP2 PUSH2 0x274B JUMP JUMPDEST DUP3 MSTORE POP POP JUMP JUMPDEST PUSH0 PUSH2 0x2BD9 DUP4 DUP4 PUSH2 0x2BBF JUMP JUMPDEST PUSH1 0x20 DUP4 ADD SWAP1 POP SWAP3 SWAP2 POP POP JUMP JUMPDEST PUSH0 PUSH1 0x20 DUP3 ADD SWAP1 POP SWAP2 SWAP1 POP JUMP JUMPDEST PUSH0 PUSH2 0x2BFB DUP3 PUSH2 0x2B96 JUMP JUMPDEST PUSH2 0x2C05 DUP2 DUP6 PUSH2 0x2BA0 JUMP JUMPDEST SWAP4 POP PUSH2 0x2C10 DUP4 PUSH2 0x2BB0 JUMP JUMPDEST DUP1 PUSH0 JUMPDEST DUP4 DUP2 LT ISZERO PUSH2 0x2C40 JUMPI DUP2 MLOAD PUSH2 0x2C27 DUP9 DUP3 PUSH2 0x2BCE JUMP JUMPDEST SWAP8 POP PUSH2 0x2C32 DUP4 PUSH2 0x2BE5 JUMP JUMPDEST SWAP3 POP POP PUSH1 0x1 DUP2 ADD SWAP1 POP PUSH2 0x2C13 JUMP JUMPDEST POP DUP6 SWAP4 POP POP POP POP SWAP3 SWAP2 POP POP JUMP JUMPDEST PUSH0 PUSH1 0x20 DUP3 ADD SWAP1 POP DUP2 DUP2 SUB PUSH0 DUP4 ADD MSTORE PUSH2 0x2C65 DUP2 DUP5 PUSH2 0x2BF1 JUMP JUMPDEST SWAP1 POP SWAP3 SWAP2 POP POP JUMP JUMPDEST PUSH2 0x2C76 DUP2 PUSH2 0x2933 JUMP JUMPDEST DUP2 EQ PUSH2 0x2C80 JUMPI PUSH0 PUSH0 REVERT JUMPDEST POP JUMP JUMPDEST PUSH0 DUP2 CALLDATALOAD SWAP1 POP PUSH2 0x2C91 DUP2 PUSH2 0x2C6D JUMP JUMPDEST SWAP3 SWAP2 POP POP JUMP JUMPDEST PUSH0 PUSH0 PUSH0 PUSH0 PUSH0 PUSH0 PUSH0 PUSH1 0xE0 DUP9 DUP11 SUB SLT ISZERO PUSH2 0x2CB2 JUMPI PUSH2 0x2CB1 PUSH2 0x25E5 JUMP JUMPDEST JUMPDEST PUSH0 PUSH2 0x2CBF DUP11 DUP3 DUP12 ADD PUSH2 0x2772 JUMP JUMPDEST SWAP8 POP POP PUSH1 0x20 PUSH2 0x2CD0 DUP11 DUP3 DUP12 ADD PUSH2 0x2772 JUMP JUMPDEST SWAP7 POP POP PUSH1 0x40 PUSH2 0x2CE1 DUP11 DUP3 DUP12 ADD PUSH2 0x27A5 JUMP JUMPDEST SWAP6 POP POP PUSH1 0x60 PUSH2 0x2CF2 DUP11 DUP3 DUP12 ADD PUSH2 0x27A5 JUMP JUMPDEST SWAP5 POP POP PUSH1 0x80 PUSH2 0x2D03 DUP11 DUP3 DUP12 ADD PUSH2 0x2C83 JUMP JUMPDEST SWAP4 POP POP PUSH1 0xA0 PUSH2 0x2D14 DUP11 DUP3 DUP12 ADD PUSH2 0x288E JUMP JUMPDEST SWAP3 POP POP PUSH1 0xC0 PUSH2 0x2D25 DUP11 DUP3 DUP12 ADD PUSH2 0x288E JUMP JUMPDEST SWAP2 POP POP SWAP3 SWAP6 SWAP9 SWAP2 SWAP5 SWAP8 POP SWAP3 SWAP6 POP JUMP JUMPDEST PUSH0 PUSH0 PUSH1 0x40 DUP4 DUP6 SUB SLT ISZERO PUSH2 0x2D4A JUMPI PUSH2 0x2D49 PUSH2 0x25E5 JUMP JUMPDEST JUMPDEST PUSH0 PUSH2 0x2D57 DUP6 DUP3 DUP7 ADD PUSH2 0x2772 JUMP JUMPDEST SWAP3 POP POP PUSH1 0x20 PUSH2 0x2D68 DUP6 DUP3 DUP7 ADD PUSH2 0x2772 JUMP JUMPDEST SWAP2 POP POP SWAP3 POP SWAP3 SWAP1 POP JUMP JUMPDEST PUSH32 0x4E487B7100000000000000000000000000000000000000000000000000000000 PUSH0 MSTORE PUSH1 0x22 PUSH1 0x4 MSTORE PUSH1 0x24 PUSH0 REVERT JUMPDEST PUSH0 PUSH1 0x2 DUP3 DIV SWAP1 POP PUSH1 0x1 DUP3 AND DUP1 PUSH2 0x2DB6 JUMPI PUSH1 0x7F DUP3 AND SWAP2 POP JUMPDEST PUSH1 0x20 DUP3 LT DUP2 SUB PUSH2 0x2DC9 JUMPI PUSH2 0x2DC8 PUSH2 0x2D72 JUMP JUMPDEST JUMPDEST POP SWAP2 SWAP1 POP JUMP JUMPDEST PUSH32 0x232323204F5455534F4E453A204D55535420484156452050415553455220524F PUSH0 DUP3 ADD MSTORE PUSH32 0x4C4520544F20554E504155534500000000000000000000000000000000000000 PUSH1 0x20 DUP3 ADD MSTORE POP JUMP JUMPDEST PUSH0 PUSH2 0x2E29 PUSH1 0x2D DUP4 PUSH2 0x26A6 JUMP JUMPDEST SWAP2 POP PUSH2 0x2E34 DUP3 PUSH2 0x2DCF JUMP JUMPDEST PUSH1 0x40 DUP3 ADD SWAP1 POP SWAP2 SWAP1 POP JUMP JUMPDEST PUSH0 PUSH1 0x20 DUP3 ADD SWAP1 POP DUP2 DUP2 SUB PUSH0 DUP4 ADD MSTORE PUSH2 0x2E56 DUP2 PUSH2 0x2E1D JUMP JUMPDEST SWAP1 POP SWAP2 SWAP1 POP JUMP JUMPDEST PUSH32 0x232323204F5455534F4E453A204D5553542048415645204D494E54455220524F PUSH0 DUP3 ADD MSTORE PUSH32 0x4C4520544F204D494E5400000000000000000000000000000000000000000000 PUSH1 0x20 DUP3 ADD MSTORE POP JUMP JUMPDEST PUSH0 PUSH2 0x2EB7 PUSH1 0x2A DUP4 PUSH2 0x26A6 JUMP JUMPDEST SWAP2 POP PUSH2 0x2EC2 DUP3 PUSH2 0x2E5D JUMP JUMPDEST PUSH1 0x40 DUP3 ADD SWAP1 POP SWAP2 SWAP1 POP JUMP JUMPDEST PUSH0 PUSH1 0x20 DUP3 ADD SWAP1 POP DUP2 DUP2 SUB PUSH0 DUP4 ADD MSTORE PUSH2 0x2EE4 DUP2 PUSH2 0x2EAB JUMP JUMPDEST SWAP1 POP SWAP2 SWAP1 POP JUMP JUMPDEST PUSH32 0x232323204F5455534F4E453A204D55535420484156452050415553455220524F PUSH0 DUP3 ADD MSTORE PUSH32 0x4C4520544F205041555345000000000000000000000000000000000000000000 PUSH1 0x20 DUP3 ADD MSTORE POP JUMP JUMPDEST PUSH0 PUSH2 0x2F45 PUSH1 0x2B DUP4 PUSH2 0x26A6 JUMP JUMPDEST SWAP2 POP PUSH2 0x2F50 DUP3 PUSH2 0x2EEB JUMP JUMPDEST PUSH1 0x40 DUP3 ADD SWAP1 POP SWAP2 SWAP1 POP JUMP JUMPDEST PUSH0 PUSH1 0x20 DUP3 ADD SWAP1 POP DUP2 DUP2 SUB PUSH0 DUP4 ADD MSTORE PUSH2 0x2F72 DUP2 PUSH2 0x2F39 JUMP JUMPDEST SWAP1 POP SWAP2 SWAP1 POP JUMP JUMPDEST PUSH32 0x4E487B7100000000000000000000000000000000000000000000000000000000 PUSH0 MSTORE PUSH1 0x41 PUSH1 0x4 MSTORE PUSH1 0x24 PUSH0 REVERT JUMPDEST PUSH0 PUSH1 0xC0 DUP3 ADD SWAP1 POP PUSH2 0x2FB9 PUSH0 DUP4 ADD DUP10 PUSH2 0x28CD JUMP JUMPDEST PUSH2 0x2FC6 PUSH1 0x20 DUP4 ADD DUP9 PUSH2 0x29F7 JUMP JUMPDEST PUSH2 0x2FD3 PUSH1 0x40 DUP4 ADD DUP8 PUSH2 0x29F7 JUMP JUMPDEST PUSH2 0x2FE0 PUSH1 0x60 DUP4 ADD DUP7 PUSH2 0x27F7 JUMP JUMPDEST PUSH2 0x2FED PUSH1 0x80 DUP4 ADD DUP6 PUSH2 0x27F7 JUMP JUMPDEST PUSH2 0x2FFA PUSH1 0xA0 DUP4 ADD DUP5 PUSH2 0x27F7 JUMP JUMPDEST SWAP8 SWAP7 POP POP POP POP POP POP POP JUMP JUMPDEST PUSH0 PUSH1 0x40 DUP3 ADD SWAP1 POP PUSH2 0x3018 PUSH0 DUP4 ADD DUP6 PUSH2 0x29F7 JUMP JUMPDEST PUSH2 0x3025 PUSH1 0x20 DUP4 ADD DUP5 PUSH2 0x29F7 JUMP JUMPDEST SWAP4 SWAP3 POP POP POP JUMP JUMPDEST PUSH32 0x232323204F5455534F4E453A204D5553542048415645204D494E54455220524F PUSH0 DUP3 ADD MSTORE PUSH32 0x4C45000000000000000000000000000000000000000000000000000000000000 PUSH1 0x20 DUP3 ADD MSTORE POP JUMP JUMPDEST PUSH0 PUSH2 0x3086 PUSH1 0x22 DUP4 PUSH2 0x26A6 JUMP JUMPDEST SWAP2 POP PUSH2 0x3091 DUP3 PUSH2 0x302C JUMP JUMPDEST PUSH1 0x40 DUP3 ADD SWAP1 POP SWAP2 SWAP1 POP JUMP JUMPDEST PUSH0 PUSH1 0x20 DUP3 ADD SWAP1 POP DUP2 DUP2 SUB PUSH0 DUP4 ADD MSTORE PUSH2 0x30B3 DUP2 PUSH2 0x307A JUMP JUMPDEST SWAP1 POP SWAP2 SWAP1 POP JUMP JUMPDEST PUSH32 0x4E487B7100000000000000000000000000000000000000000000000000000000 PUSH0 MSTORE PUSH1 0x11 PUSH1 0x4 MSTORE PUSH1 0x24 PUSH0 REVERT JUMPDEST PUSH0 PUSH2 0x30F1 DUP3 PUSH2 0x2786 JUMP JUMPDEST SWAP2 POP PUSH2 0x30FC DUP4 PUSH2 0x2786 JUMP JUMPDEST SWAP3 POP DUP3 DUP3 ADD SWAP1 POP DUP1 DUP3 GT ISZERO PUSH2 0x3114 JUMPI PUSH2 0x3113 PUSH2 0x30BA JUMP JUMPDEST JUMPDEST SWAP3 SWAP2 POP POP JUMP JUMPDEST PUSH32 0x232323204F5455534F4E453A2041444D494E204F4E4C59000000000000000000 PUSH0 DUP3 ADD MSTORE POP JUMP JUMPDEST PUSH0 PUSH2 0x314E PUSH1 0x17 DUP4 PUSH2 0x26A6 JUMP JUMPDEST SWAP2 POP PUSH2 0x3159 DUP3 PUSH2 0x311A JUMP JUMPDEST PUSH1 0x20 DUP3 ADD SWAP1 POP SWAP2 SWAP1 POP JUMP JUMPDEST PUSH0 PUSH1 0x20 DUP3 ADD SWAP1 POP DUP2 DUP2 SUB PUSH0 DUP4 ADD MSTORE PUSH2 0x317B DUP2 PUSH2 0x3142 JUMP JUMPDEST SWAP1 POP SWAP2 SWAP1 POP JUMP JUMPDEST PUSH0 PUSH1 0x60 DUP3 ADD SWAP1 POP PUSH2 0x3195 PUSH0 DUP4 ADD DUP7 PUSH2 0x29F7 JUMP JUMPDEST PUSH2 0x31A2 PUSH1 0x20 DUP4 ADD DUP6 PUSH2 0x27F7 JUMP JUMPDEST PUSH2 0x31AF PUSH1 0x40 DUP4 ADD DUP5 PUSH2 0x27F7 JUMP JUMPDEST SWAP5 SWAP4 POP POP POP POP JUMP JUMPDEST PUSH0 PUSH2 0x31C1 DUP3 PUSH2 0x2786 JUMP JUMPDEST SWAP2 POP PUSH2 0x31CC DUP4 PUSH2 0x2786 JUMP JUMPDEST SWAP3 POP DUP3 DUP3 MUL PUSH2 0x31DA DUP2 PUSH2 0x2786 JUMP JUMPDEST SWAP2 POP DUP3 DUP3 DIV DUP5 EQ DUP4 ISZERO OR PUSH2 0x31F1 JUMPI PUSH2 0x31F0 PUSH2 0x30BA JUMP JUMPDEST JUMPDEST POP SWAP3 SWAP2 POP POP JUMP JUMPDEST PUSH32 0x4E487B7100000000000000000000000000000000000000000000000000000000 PUSH0 MSTORE PUSH1 0x12 PUSH1 0x4 MSTORE PUSH1 0x24 PUSH0 REVERT JUMPDEST PUSH0 PUSH2 0x322F DUP3 PUSH2 0x2786 JUMP JUMPDEST SWAP2 POP PUSH2 0x323A DUP4 PUSH2 0x2786 JUMP JUMPDEST SWAP3 POP DUP3 PUSH2 0x324A JUMPI PUSH2 0x3249 PUSH2 0x31F8 JUMP JUMPDEST JUMPDEST DUP3 DUP3 DIV SWAP1 POP SWAP3 SWAP2 POP POP JUMP JUMPDEST PUSH0 PUSH1 0x40 DUP3 ADD SWAP1 POP PUSH2 0x3268 PUSH0 DUP4 ADD DUP6 PUSH2 0x29F7 JUMP JUMPDEST PUSH2 0x3275 PUSH1 0x20 DUP4 ADD DUP5 PUSH2 0x28CD JUMP JUMPDEST SWAP4 SWAP3 POP POP POP JUMP JUMPDEST PUSH0 PUSH1 0xA0 DUP3 ADD SWAP1 POP PUSH2 0x328F PUSH0 DUP4 ADD DUP9 PUSH2 0x28CD JUMP JUMPDEST PUSH2 0x329C PUSH1 0x20 DUP4 ADD DUP8 PUSH2 0x28CD JUMP JUMPDEST PUSH2 0x32A9 PUSH1 0x40 DUP4 ADD DUP7 PUSH2 0x28CD JUMP JUMPDEST PUSH2 0x32B6 PUSH1 0x60 DUP4 ADD DUP6 PUSH2 0x27F7 JUMP JUMPDEST PUSH2 0x32C3 PUSH1 0x80 DUP4 ADD DUP5 PUSH2 0x29F7 JUMP JUMPDEST SWAP7 SWAP6 POP POP POP POP POP POP JUMP JUMPDEST PUSH32 0x4E487B7100000000000000000000000000000000000000000000000000000000 PUSH0 MSTORE PUSH1 0x32 PUSH1 0x4 MSTORE PUSH1 0x24 PUSH0 REVERT JUMPDEST PUSH0 PUSH1 0x80 DUP3 ADD SWAP1 POP PUSH2 0x330D PUSH0 DUP4 ADD DUP8 PUSH2 0x28CD JUMP JUMPDEST PUSH2 0x331A PUSH1 0x20 DUP4 ADD DUP7 PUSH2 0x293F JUMP JUMPDEST PUSH2 0x3327 PUSH1 0x40 DUP4 ADD DUP6 PUSH2 0x28CD JUMP JUMPDEST PUSH2 0x3334 PUSH1 0x60 DUP4 ADD DUP5 PUSH2 0x28CD JUMP JUMPDEST SWAP6 SWAP5 POP POP POP POP POP JUMP JUMPDEST PUSH32 0x4E487B7100000000000000000000000000000000000000000000000000000000 PUSH0 MSTORE PUSH1 0x21 PUSH1 0x4 MSTORE PUSH1 0x24 PUSH0 REVERT JUMPDEST PUSH0 PUSH2 0x3374 DUP3 PUSH2 0x2786 JUMP JUMPDEST SWAP2 POP PUSH2 0x337F DUP4 PUSH2 0x2786 JUMP JUMPDEST SWAP3 POP DUP3 DUP3 SUB SWAP1 POP DUP2 DUP2 GT ISZERO PUSH2 0x3397 JUMPI PUSH2 0x3396 PUSH2 0x30BA JUMP JUMPDEST JUMPDEST SWAP3 SWAP2 POP POP JUMP JUMPDEST PUSH32 0x4E487B7100000000000000000000000000000000000000000000000000000000 PUSH0 MSTORE PUSH1 0x31 PUSH1 0x4 MSTORE PUSH1 0x24 PUSH0 REVERT INVALID LOG2 PUSH5 0x6970667358 0x22 SLT KECCAK256 PUSH26 0xBE94213A45B506EE7C69006218DB106F5BAA41D730CADEA617DA DIV SDIV RETURNDATASIZE 0x4C 0xDB PUSH5 0x736F6C6343 STOP ADDMOD 0x1E STOP CALLER "
		},
		"gasEstimates": {
			"creation": {
				"codeDepositCost": "2662400",
				"executionCost": "infinite",
				"totalCost": "infinite"
			},
			"external": {
				"DEFAULT_ADMIN_ROLE()": "396",
				"DOMAIN_SEPARATOR()": "infinite",
				"MINTER_ROLE()": "436",
				"PAUSER_ROLE()": "457",
				"adminMint(address,uint256)": "infinite",
				"allowance(address,address)": "infinite",
				"approve(address,uint256)": "infinite",
				"balanceOf(address)": "2918",
				"burn(uint256)": "infinite",
				"burnFrom(address,uint256)": "infinite",
				"decimals()": "450",
				"eip712Domain()": "infinite",
				"getRoleAdmin(bytes32)": "infinite",
				"getRoleMember(bytes32,uint256)": "infinite",
				"getRoleMemberCount(bytes32)": "2938",
				"getRoleMembers(bytes32)": "infinite",
				"getTotalSupplyExternal()": "2511",
				"grantRole(bytes32,address)": "infinite",
				"hasRole(bytes32,address)": "3232",
				"mint(address,uint256)": "infinite",
				"mintWithBonus(address,uint256)": "infinite",
				"name()": "infinite",
				"nonces(address)": "3004",
				"pause()": "infinite",
				"paused()": "2540",
				"permit(address,address,uint256,uint256,uint8,bytes32,bytes32)": "infinite",
				"renounceRole(bytes32,address)": "infinite",
				"revokeRole(bytes32,address)": "infinite",
				"supportsInterface(bytes4)": "852",
				"symbol()": "infinite",
				"totalSupply()": "2545",
				"transfer(address,uint256)": "infinite",
				"transferFrom(address,address,uint256)": "infinite",
				"unpause()": "infinite"
			},
			"internal": {
				"_calculateBonus(uint256)": "infinite",
				"_internalLog(address,uint256)": "infinite",
				"_update(address,address,uint256)": "infinite"
			}
		},
		"methodIdentifiers": {
			"DEFAULT_ADMIN_ROLE()": "a217fddf",
			"DOMAIN_SEPARATOR()": "3644e515",
			"MINTER_ROLE()": "d5391393",
			"PAUSER_ROLE()": "e63ab1e9",
			"adminMint(address,uint256)": "e58306f9",
			"allowance(address,address)": "dd62ed3e",
			"approve(address,uint256)": "095ea7b3",
			"balanceOf(address)": "70a08231",
			"burn(uint256)": "42966c68",
			"burnFrom(address,uint256)": "79cc6790",
			"decimals()": "313ce567",
			"eip712Domain()": "84b0196e",
			"getRoleAdmin(bytes32)": "248a9ca3",
			"getRoleMember(bytes32,uint256)": "9010d07c",
			"getRoleMemberCount(bytes32)": "ca15c873",
			"getRoleMembers(bytes32)": "a3246ad3",
			"getTotalSupplyExternal()": "bac498e1",
			"grantRole(bytes32,address)": "2f2ff15d",
			"hasRole(bytes32,address)": "91d14854",
			"mint(address,uint256)": "40c10f19",
			"mintWithBonus(address,uint256)": "dd60be22",
			"name()": "06fdde03",
			"nonces(address)": "7ecebe00",
			"pause()": "8456cb59",
			"paused()": "5c975abb",
			"permit(address,address,uint256,uint256,uint8,bytes32,bytes32)": "d505accf",
			"renounceRole(bytes32,address)": "36568abe",
			"revokeRole(bytes32,address)": "d547741f",
			"supportsInterface(bytes4)": "01ffc9a7",
			"symbol()": "95d89b41",
			"totalSupply()": "18160ddd",
			"transfer(address,uint256)": "a9059cbb",
			"transferFrom(address,address,uint256)": "23b872dd",
			"unpause()": "3f4ba83a"
		}
	},
	"abi": [
		{
			"inputs": [],
			"stateMutability": "nonpayable",
			"type": "constructor"
		},
		{
			"inputs": [],
			"name": "AccessControlBadConfirmation",
			"type": "error"
		},
		{
			"inputs": [
				{
					"internalType": "address",
					"name": "account",
					"type": "address"
				},
				{
					"internalType": "bytes32",
					"name": "neededRole",
					"type": "bytes32"
				}
			],
			"name": "AccessControlUnauthorizedAccount",
			"type": "error"
		},
		{
			"inputs": [],
			"name": "ECDSAInvalidSignature",
			"type": "error"
		},
		{
			"inputs": [
				{
					"internalType": "uint256",
					"name": "length",
					"type": "uint256"
				}
			],
			"name": "ECDSAInvalidSignatureLength",
			"type": "error"
		},
		{
			"inputs": [
				{
					"internalType": "bytes32",
					"name": "s",
					"type": "bytes32"
				}
			],
			"name": "ECDSAInvalidSignatureS",
			"type": "error"
		},
		{
			"inputs": [
				{
					"internalType": "address",
					"name": "spender",
					"type": "address"
				},
				{
					"internalType": "uint256",
					"name": "allowance",
					"type": "uint256"
				},
				{
					"internalType": "uint256",
					"name": "needed",
					"type": "uint256"
				}
			],
			"name": "ERC20InsufficientAllowance",
			"type": "error"
		},
		{
			"inputs": [
				{
					"internalType": "address",
					"name": "sender",
					"type": "address"
				},
				{
					"internalType": "uint256",
					"name": "balance",
					"type": "uint256"
				},
				{
					"internalType": "uint256",
					"name": "needed",
					"type": "uint256"
				}
			],
			"name": "ERC20InsufficientBalance",
			"type": "error"
		},
		{
			"inputs": [
				{
					"internalType": "address",
					"name": "approver",
					"type": "address"
				}
			],
			"name": "ERC20InvalidApprover",
			"type": "error"
		},
		{
			"inputs": [
				{
					"internalType": "address",
					"name": "receiver",
					"type": "address"
				}
			],
			"name": "ERC20InvalidReceiver",
			"type": "error"
		},
		{
			"inputs": [
				{
					"internalType": "address",
					"name": "sender",
					"type": "address"
				}
			],
			"name": "ERC20InvalidSender",
			"type": "error"
		},
		{
			"inputs": [
				{
					"internalType": "address",
					"name": "spender",
					"type": "address"
				}
			],
			"name": "ERC20InvalidSpender",
			"type": "error"
		},
		{
			"inputs": [
				{
					"internalType": "uint256",
					"name": "deadline",
					"type": "uint256"
				}
			],
			"name": "ERC2612ExpiredSignature",
			"type": "error"
		},
		{
			"inputs": [
				{
					"internalType": "address",
					"name": "signer",
					"type": "address"
				},
				{
					"internalType": "address",
					"name": "owner",
					"type": "address"
				}
			],
			"name": "ERC2612InvalidSigner",
			"type": "error"
		},
		{
			"inputs": [],
			"name": "EnforcedPause",
			"type": "error"
		},
		{
			"inputs": [],
			"name": "ExpectedPause",
			"type": "error"
		},
		{
			"inputs": [
				{
					"internalType": "address",
					"name": "account",
					"type": "address"
				},
				{
					"internalType": "uint256",
					"name": "currentNonce",
					"type": "uint256"
				}
			],
			"name": "InvalidAccountNonce",
			"type": "error"
		},
		{
			"inputs": [],
			"name": "InvalidShortString",
			"type": "error"
		},
		{
			"inputs": [
				{
					"internalType": "string",
					"name": "str",
					"type": "string"
				}
			],
			"name": "StringTooLong",
			"type": "error"
		},
		{
			"anonymous": false,
			"inputs": [
				{
					"indexed": true,
					"internalType": "address",
					"name": "owner",
					"type": "address"
				},
				{
					"indexed": true,
					"internalType": "address",
					"name": "spender",
					"type": "address"
				},
				{
					"indexed": false,
					"internalType": "uint256",
					"name": "value",
					"type": "uint256"
				}
			],
			"name": "Approval",
			"type": "event"
		},
		{
			"anonymous": false,
			"inputs": [],
			"name": "EIP712DomainChanged",
			"type": "event"
		},
		{
			"anonymous": false,
			"inputs": [
				{
					"indexed": true,
					"internalType": "address",
					"name": "to",
					"type": "address"
				},
				{
					"indexed": false,
					"internalType": "uint256",
					"name": "amount",
					"type": "uint256"
				},
				{
					"indexed": true,
					"internalType": "address",
					"name": "triggeredBy",
					"type": "address"
				}
			],
			"name": "MintLog",
			"type": "event"
		},
		{
			"anonymous": false,
			"inputs": [
				{
					"indexed": false,
					"internalType": "address",
					"name": "account",
					"type": "address"
				}
			],
			"name": "Paused",
			"type": "event"
		},
		{
			"anonymous": false,
			"inputs": [
				{
					"indexed": true,
					"internalType": "bytes32",
					"name": "role",
					"type": "bytes32"
				},
				{
					"indexed": true,
					"internalType": "bytes32",
					"name": "previousAdminRole",
					"type": "bytes32"
				},
				{
					"indexed": true,
					"internalType": "bytes32",
					"name": "newAdminRole",
					"type": "bytes32"
				}
			],
			"name": "RoleAdminChanged",
			"type": "event"
		},
		{
			"anonymous": false,
			"inputs": [
				{
					"indexed": true,
					"internalType": "bytes32",
					"name": "role",
					"type": "bytes32"
				},
				{
					"indexed": true,
					"internalType": "address",
					"name": "account",
					"type": "address"
				},
				{
					"indexed": true,
					"internalType": "address",
					"name": "sender",
					"type": "address"
				}
			],
			"name": "RoleGranted",
			"type": "event"
		},
		{
			"anonymous": false,
			"inputs": [
				{
					"indexed": true,
					"internalType": "bytes32",
					"name": "role",
					"type": "bytes32"
				},
				{
					"indexed": true,
					"internalType": "address",
					"name": "account",
					"type": "address"
				},
				{
					"indexed": true,
					"internalType": "address",
					"name": "sender",
					"type": "address"
				}
			],
			"name": "RoleRevoked",
			"type": "event"
		},
		{
			"anonymous": false,
			"inputs": [
				{
					"indexed": true,
					"internalType": "address",
					"name": "from",
					"type": "address"
				},
				{
					"indexed": true,
					"internalType": "address",
					"name": "to",
					"type": "address"
				},
				{
					"indexed": false,
					"internalType": "uint256",
					"name": "value",
					"type": "uint256"
				}
			],
			"name": "Transfer",
			"type": "event"
		},
		{
			"anonymous": false,
			"inputs": [
				{
					"indexed": false,
					"internalType": "address",
					"name": "account",
					"type": "address"
				}
			],
			"name": "Unpaused",
			"type": "event"
		},
		{
			"inputs": [],
			"name": "DEFAULT_ADMIN_ROLE",
			"outputs": [
				{
					"internalType": "bytes32",
					"name": "",
					"type": "bytes32"
				}
			],
			"stateMutability": "view",
			"type": "function"
		},
		{
			"inputs": [],
			"name": "DOMAIN_SEPARATOR",
			"outputs": [
				{
					"internalType": "bytes32",
					"name": "",
					"type": "bytes32"
				}
			],
			"stateMutability": "view",
			"type": "function"
		},
		{
			"inputs": [],
			"name": "MINTER_ROLE",
			"outputs": [
				{
					"internalType": "bytes32",
					"name": "",
					"type": "bytes32"
				}
			],
			"stateMutability": "view",
			"type": "function"
		},
		{
			"inputs": [],
			"name": "PAUSER_ROLE",
			"outputs": [
				{
					"internalType": "bytes32",
					"name": "",
					"type": "bytes32"
				}
			],
			"stateMutability": "view",
			"type": "function"
		},
		{
			"inputs": [
				{
					"internalType": "address",
					"name": "to",
					"type": "address"
				},
				{
					"internalType": "uint256",
					"name": "amount",
					"type": "uint256"
				}
			],
			"name": "adminMint",
			"outputs": [],
			"stateMutability": "nonpayable",
			"type": "function"
		},
		{
			"inputs": [
				{
					"internalType": "address",
					"name": "owner",
					"type": "address"
				},
				{
					"internalType": "address",
					"name": "spender",
					"type": "address"
				}
			],
			"name": "allowance",
			"outputs": [
				{
					"internalType": "uint256",
					"name": "",
					"type": "uint256"
				}
			],
			"stateMutability": "view",
			"type": "function"
		},
		{
			"inputs": [
				{
					"internalType": "address",
					"name": "spender",
					"type": "address"
				},
				{
					"internalType": "uint256",
					"name": "value",
					"type": "uint256"
				}
			],
			"name": "approve",
			"outputs": [
				{
					"internalType": "bool",
					"name": "",
					"type": "bool"
				}
			],
			"stateMutability": "nonpayable",
			"type": "function"
		},
		{
			"inputs": [
				{
					"internalType": "address",
					"name": "account",
					"type": "address"
				}
			],
			"name": "balanceOf",
			"outputs": [
				{
					"internalType": "uint256",
					"name": "",
					"type": "uint256"
				}
			],
			"stateMutability": "view",
			"type": "function"
		},
		{
			"inputs": [
				{
					"internalType": "uint256",
					"name": "value",
					"type": "uint256"
				}
			],
			"name": "burn",
			"outputs": [],
			"stateMutability": "nonpayable",
			"type": "function"
		},
		{
			"inputs": [
				{
					"internalType": "address",
					"name": "account",
					"type": "address"
				},
				{
					"internalType": "uint256",
					"name": "value",
					"type": "uint256"
				}
			],
			"name": "burnFrom",
			"outputs": [],
			"stateMutability": "nonpayable",
			"type": "function"
		},
		{
			"inputs": [],
			"name": "decimals",
			"outputs": [
				{
					"internalType": "uint8",
					"name": "",
					"type": "uint8"
				}
			],
			"stateMutability": "view",
			"type": "function"
		},
		{
			"inputs": [],
			"name": "eip712Domain",
			"outputs": [
				{
					"internalType": "bytes1",
					"name": "fields",
					"type": "bytes1"
				},
				{
					"internalType": "string",
					"name": "name",
					"type": "string"
				},
				{
					"internalType": "string",
					"name": "version",
					"type": "string"
				},
				{
					"internalType": "uint256",
					"name": "chainId",
					"type": "uint256"
				},
				{
					"internalType": "address",
					"name": "verifyingContract",
					"type": "address"
				},
				{
					"internalType": "bytes32",
					"name": "salt",
					"type": "bytes32"
				},
				{
					"internalType": "uint256[]",
					"name": "extensions",
					"type": "uint256[]"
				}
			],
			"stateMutability": "view",
			"type": "function"
		},
		{
			"inputs": [
				{
					"internalType": "bytes32",
					"name": "role",
					"type": "bytes32"
				}
			],
			"name": "getRoleAdmin",
			"outputs": [
				{
					"internalType": "bytes32",
					"name": "",
					"type": "bytes32"
				}
			],
			"stateMutability": "view",
			"type": "function"
		},
		{
			"inputs": [
				{
					"internalType": "bytes32",
					"name": "role",
					"type": "bytes32"
				},
				{
					"internalType": "uint256",
					"name": "index",
					"type": "uint256"
				}
			],
			"name": "getRoleMember",
			"outputs": [
				{
					"internalType": "address",
					"name": "",
					"type": "address"
				}
			],
			"stateMutability": "view",
			"type": "function"
		},
		{
			"inputs": [
				{
					"internalType": "bytes32",
					"name": "role",
					"type": "bytes32"
				}
			],
			"name": "getRoleMemberCount",
			"outputs": [
				{
					"internalType": "uint256",
					"name": "",
					"type": "uint256"
				}
			],
			"stateMutability": "view",
			"type": "function"
		},
		{
			"inputs": [
				{
					"internalType": "bytes32",
					"name": "role",
					"type": "bytes32"
				}
			],
			"name": "getRoleMembers",
			"outputs": [
				{
					"internalType": "address[]",
					"name": "",
					"type": "address[]"
				}
			],
			"stateMutability": "view",
			"type": "function"
		},
		{
			"inputs": [],
			"name": "getTotalSupplyExternal",
			"outputs": [
				{
					"internalType": "uint256",
					"name": "",
					"type": "uint256"
				}
			],
			"stateMutability": "view",
			"type": "function"
		},
		{
			"inputs": [
				{
					"internalType": "bytes32",
					"name": "role",
					"type": "bytes32"
				},
				{
					"internalType": "address",
					"name": "account",
					"type": "address"
				}
			],
			"name": "grantRole",
			"outputs": [],
			"stateMutability": "nonpayable",
			"type": "function"
		},
		{
			"inputs": [
				{
					"internalType": "bytes32",
					"name": "role",
					"type": "bytes32"
				},
				{
					"internalType": "address",
					"name": "account",
					"type": "address"
				}
			],
			"name": "hasRole",
			"outputs": [
				{
					"internalType": "bool",
					"name": "",
					"type": "bool"
				}
			],
			"stateMutability": "view",
			"type": "function"
		},
		{
			"inputs": [
				{
					"internalType": "address",
					"name": "to",
					"type": "address"
				},
				{
					"internalType": "uint256",
					"name": "amount",
					"type": "uint256"
				}
			],
			"name": "mint",
			"outputs": [],
			"stateMutability": "nonpayable",
			"type": "function"
		},
		{
			"inputs": [
				{
					"internalType": "address",
					"name": "to",
					"type": "address"
				},
				{
					"internalType": "uint256",
					"name": "amount",
					"type": "uint256"
				}
			],
			"name": "mintWithBonus",
			"outputs": [],
			"stateMutability": "nonpayable",
			"type": "function"
		},
		{
			"inputs": [],
			"name": "name",
			"outputs": [
				{
					"internalType": "string",
					"name": "",
					"type": "string"
				}
			],
			"stateMutability": "view",
			"type": "function"
		},
		{
			"inputs": [
				{
					"internalType": "address",
					"name": "owner",
					"type": "address"
				}
			],
			"name": "nonces",
			"outputs": [
				{
					"internalType": "uint256",
					"name": "",
					"type": "uint256"
				}
			],
			"stateMutability": "view",
			"type": "function"
		},
		{
			"inputs": [],
			"name": "pause",
			"outputs": [],
			"stateMutability": "nonpayable",
			"type": "function"
		},
		{
			"inputs": [],
			"name": "paused",
			"outputs": [
				{
					"internalType": "bool",
					"name": "",
					"type": "bool"
				}
			],
			"stateMutability": "view",
			"type": "function"
		},
		{
			"inputs": [
				{
					"internalType": "address",
					"name": "owner",
					"type": "address"
				},
				{
					"internalType": "address",
					"name": "spender",
					"type": "address"
				},
				{
					"internalType": "uint256",
					"name": "value",
					"type": "uint256"
				},
				{
					"internalType": "uint256",
					"name": "deadline",
					"type": "uint256"
				},
				{
					"internalType": "uint8",
					"name": "v",
					"type": "uint8"
				},
				{
					"internalType": "bytes32",
					"name": "r",
					"type": "bytes32"
				},
				{
					"internalType": "bytes32",
					"name": "s",
					"type": "bytes32"
				}
			],
			"name": "permit",
			"outputs": [],
			"stateMutability": "nonpayable",
			"type": "function"
		},
		{
			"inputs": [
				{
					"internalType": "bytes32",
					"name": "role",
					"type": "bytes32"
				},
				{
					"internalType": "address",
					"name": "callerConfirmation",
					"type": "address"
				}
			],
			"name": "renounceRole",
			"outputs": [],
			"stateMutability": "nonpayable",
			"type": "function"
		},
		{
			"inputs": [
				{
					"internalType": "bytes32",
					"name": "role",
					"type": "bytes32"
				},
				{
					"internalType": "address",
					"name": "account",
					"type": "address"
				}
			],
			"name": "revokeRole",
			"outputs": [],
			"stateMutability": "nonpayable",
			"type": "function"
		},
		{
			"inputs": [
				{
					"internalType": "bytes4",
					"name": "interfaceId",
					"type": "bytes4"
				}
			],
			"name": "supportsInterface",
			"outputs": [
				{
					"internalType": "bool",
					"name": "",
					"type": "bool"
				}
			],
			"stateMutability": "view",
			"type": "function"
		},
		{
			"inputs": [],
			"name": "symbol",
			"outputs": [
				{
					"internalType": "string",
					"name": "",
					"type": "string"
				}
			],
			"stateMutability": "view",
			"type": "function"
		},
		{
			"inputs": [],
			"name": "totalSupply",
			"outputs": [
				{
					"internalType": "uint256",
					"name": "",
					"type": "uint256"
				}
			],
			"stateMutability": "view",
			"type": "function"
		},
		{
			"inputs": [
				{
					"internalType": "address",
					"name": "to",
					"type": "address"
				},
				{
					"internalType": "uint256",
					"name": "value",
					"type": "uint256"
				}
			],
			"name": "transfer",
			"outputs": [
				{
					"internalType": "bool",
					"name": "",
					"type": "bool"
				}
			],
			"stateMutability": "nonpayable",
			"type": "function"
		},
		{
			"inputs": [
				{
					"internalType": "address",
					"name": "from",
					"type": "address"
				},
				{
					"internalType": "address",
					"name": "to",
					"type": "address"
				},
				{
					"internalType": "uint256",
					"name": "value",
					"type": "uint256"
				}
			],
			"name": "transferFrom",
			"outputs": [
				{
					"internalType": "bool",
					"name": "",
					"type": "bool"
				}
			],
			"stateMutability": "nonpayable",
			"type": "function"
		},
		{
			"inputs": [],
			"name": "unpause",
			"outputs": [],
			"stateMutability": "nonpayable",
			"type": "function"
		}
	]
}